{
  "contractName": "Doctor",
  "abi": [
    {
      "constant": true,
      "inputs": [],
      "name": "getData",
      "outputs": [
        {
          "name": "",
          "type": "string"
        }
      ],
      "payable": false,
      "stateMutability": "view",
      "type": "function"
    },
    {
      "constant": false,
      "inputs": [
        {
          "name": "patient",
          "type": "address"
        },
        {
          "name": "drugDetails",
          "type": "bytes32"
        }
      ],
      "name": "writePrescription",
      "outputs": [
        {
          "name": "id",
          "type": "uint256"
        }
      ],
      "payable": false,
      "stateMutability": "nonpayable",
      "type": "function"
    },
    {
      "inputs": [
        {
          "name": "nameParam",
          "type": "bytes32"
        }
      ],
      "payable": false,
      "stateMutability": "nonpayable",
      "type": "constructor"
    },
    {
      "anonymous": false,
      "inputs": [],
      "name": "PrescriptionCreated",
      "type": "event"
    }
  ],
  "bytecode": "0x6060604052341561000f57600080fd5b6040516020806104dc83398101604052808051906020019091905050806000816000191690555050610496806100466000396000f30060606040526004361061004c576000357c0100000000000000000000000000000000000000000000000000000000900463ffffffff1680633bc5de3014610051578063bc19bf83146100df575b600080fd5b341561005c57600080fd5b610064610139565b6040518080602001828103825283818151815260200191508051906020019080838360005b838110156100a4578082015181840152602081019050610089565b50505050905090810190601f1680156100d15780820380516001836020036101000a031916815260200191505b509250505060405180910390f35b34156100ea57600080fd5b610123600480803573ffffffffffffffffffffffffffffffffffffffff1690602001909190803560001916906020019091905050610151565b6040518082815260200191505060405180910390f35b610141610442565b61014c600054610255565b905090565b60008273ffffffffffffffffffffffffffffffffffffffff1663d290b9bc30846000604051602001526040518363ffffffff167c0100000000000000000000000000000000000000000000000000000000028152600401808373ffffffffffffffffffffffffffffffffffffffff1673ffffffffffffffffffffffffffffffffffffffff168152602001826000191660001916815260200192505050602060405180830381600087803b151561020657600080fd5b6102c65a03f1151561021757600080fd5b5050506040518051905090507fe6ceb9b7b79d4700d840689cc369c9009ef72e9901ae1bd87d8c9fcfc898a1ed60405160405180910390a192915050565b61025d610442565b610265610456565b6000806000610272610456565b60206040518059106102815750595b9080825280601f01601f1916602001820160405250945060009350600092505b602083101561035f578260080260020a876001900402600102915060007f010000000000000000000000000000000000000000000000000000000000000002827effffffffffffffffffffffffffffffffffffffffffffffffffffffffffffff19161415156103525781858581518110151561031957fe5b9060200101907effffffffffffffffffffffffffffffffffffffffffffffffffffffffffffff1916908160001a90535083806001019450505b82806001019350506102a1565b8360405180591061036d5750595b9080825280601f01601f19166020018201604052509050600092505b8383101561043557848381518110151561039f57fe5b9060200101517f010000000000000000000000000000000000000000000000000000000000000090047f01000000000000000000000000000000000000000000000000000000000000000281848151811015156103f857fe5b9060200101907effffffffffffffffffffffffffffffffffffffffffffffffffffffffffffff1916908160001a9053508280600101935050610389565b8095505050505050919050565b602060405190810160405280600081525090565b6020604051908101604052806000815250905600a165627a7a7230582075b60fdbfdde6533b25c4e98a448654f4a35ba27812698a2b7b1f0473eaddc8d0029",
  "source": "import \"./Patient.sol\";\n\npragma solidity ^0.4.8;\n\ncontract Doctor {\n    bytes32 name;\n    event PrescriptionCreated();\n\n    function Doctor(bytes32 nameParam) public {\n        name = nameParam;\n    }\n\n    function writePrescription(address patient, bytes32 drugDetails) public returns (uint id) {\n        id = Patient(patient).addPrescription(this, drugDetails);\n        PrescriptionCreated();\n    }\n\n    function getData() public constant returns (string) {\n        return bytes32ToString(name);\n    }\n\n    function bytes32ToString(bytes32 x) private returns (string) {\n        bytes memory bytesString = new bytes(32);\n        uint charCount = 0;\n        for (uint j = 0; j < 32; j++) {\n            byte char = byte(bytes32(uint(x) * 2 ** (8 * j)));\n            if (char != 0) {\n                bytesString[charCount] = char;\n                charCount++;\n            }\n        }\n        bytes memory bytesStringTrimmed = new bytes(charCount);\n        for (j = 0; j < charCount; j++) {\n            bytesStringTrimmed[j] = bytesString[j];\n        }\n        return string(bytesStringTrimmed);\n    }\n}",
  "sourcePath": "D:\\Projects\\LauzHack\\contracts\\Doctor.sol",
  "compiler": {
    "name": "solc",
    "version": "0.4.18+commit.9cf6e910.Emscripten.clang"
  },
  "schemaVersion": "1.0.1",
  "updatedAt": "2017-11-12T05:40:44.733Z"
}