{
  "contractName": "Doctor",
  "abi": [
    {
      "constant": true,
      "inputs": [],
      "name": "getData",
      "outputs": [
        {
          "name": "",
          "type": "string"
        }
      ],
      "payable": false,
      "stateMutability": "view",
      "type": "function"
    },
    {
      "constant": false,
      "inputs": [
        {
          "name": "patient",
          "type": "address"
        },
        {
          "name": "drugName",
          "type": "bytes32"
        }
      ],
      "name": "writePrescription",
      "outputs": [
        {
          "name": "prescriptionAddr",
          "type": "address"
        },
        {
          "name": "doctorAddr",
          "type": "address"
        },
        {
          "name": "patientAddr",
          "type": "address"
        }
      ],
      "payable": false,
      "stateMutability": "nonpayable",
      "type": "function"
    },
    {
      "inputs": [
        {
          "name": "nameParam",
          "type": "bytes32"
        }
      ],
      "payable": false,
      "stateMutability": "nonpayable",
      "type": "constructor"
    },
    {
      "anonymous": false,
      "inputs": [],
      "name": "PrescriptionCreated",
      "type": "event"
    }
  ],
  "bytecode": "0x6060604052341561000f57600080fd5b604051602080610e7983398101604052808051906020019091905050806000816000191690555050610e33806100466000396000f30060606040526004361061004c576000357c0100000000000000000000000000000000000000000000000000000000900463ffffffff1680633bc5de3014610051578063bc19bf83146100df575b600080fd5b341561005c57600080fd5b6100646101cb565b6040518080602001828103825283818151815260200191508051906020019080838360005b838110156100a4578082015181840152602081019050610089565b50505050905090810190601f1680156100d15780820380516001836020036101000a031916815260200191505b509250505060405180910390f35b34156100ea57600080fd5b610123600480803573ffffffffffffffffffffffffffffffffffffffff16906020019091908035600019169060200190919050506101e3565b604051808473ffffffffffffffffffffffffffffffffffffffff1673ffffffffffffffffffffffffffffffffffffffff1681526020018373ffffffffffffffffffffffffffffffffffffffff1673ffffffffffffffffffffffffffffffffffffffff1681526020018273ffffffffffffffffffffffffffffffffffffffff1673ffffffffffffffffffffffffffffffffffffffff168152602001935050505060405180910390f35b6101d3610677565b6101de60005461048a565b905090565b600080600080600030878760006101f861068b565b808573ffffffffffffffffffffffffffffffffffffffff1673ffffffffffffffffffffffffffffffffffffffff1681526020018473ffffffffffffffffffffffffffffffffffffffff1673ffffffffffffffffffffffffffffffffffffffff168152602001836000191660001916815260200182151515158152602001945050505050604051809103906000f080151561029157600080fd5b91508690508173ffffffffffffffffffffffffffffffffffffffff1663d0e0ba958273ffffffffffffffffffffffffffffffffffffffff1663d56e19f16000604051602001526040518163ffffffff167c0100000000000000000000000000000000000000000000000000000000028152600401602060405180830381600087803b151561031e57600080fd5b6102c65a03f1151561032f57600080fd5b505050604051805190506040518263ffffffff167c010000000000000000000000000000000000000000000000000000000002815260040180828152602001915050600060405180830381600087803b151561038a57600080fd5b6102c65a03f1151561039b57600080fd5b5050508073ffffffffffffffffffffffffffffffffffffffff16633abcc64c836040518263ffffffff167c0100000000000000000000000000000000000000000000000000000000028152600401808273ffffffffffffffffffffffffffffffffffffffff1673ffffffffffffffffffffffffffffffffffffffff168152602001915050600060405180830381600087803b151561043857600080fd5b6102c65a03f1151561044957600080fd5b5050508194503093508692507fe6ceb9b7b79d4700d840689cc369c9009ef72e9901ae1bd87d8c9fcfc898a1ed60405160405180910390a150509250925092565b610492610677565b61049a61069b565b60008060006104a761069b565b60206040518059106104b65750595b9080825280601f01601f1916602001820160405250945060009350600092505b6020831015610594578260080260020a876001900402600102915060007f010000000000000000000000000000000000000000000000000000000000000002827effffffffffffffffffffffffffffffffffffffffffffffffffffffffffffff19161415156105875781858581518110151561054e57fe5b9060200101907effffffffffffffffffffffffffffffffffffffffffffffffffffffffffffff1916908160001a90535083806001019450505b82806001019350506104d6565b836040518059106105a25750595b9080825280601f01601f19166020018201604052509050600092505b8383101561066a5784838151811015156105d457fe5b9060200101517f010000000000000000000000000000000000000000000000000000000000000090047f010000000000000000000000000000000000000000000000000000000000000002818481518110151561062d57fe5b9060200101907effffffffffffffffffffffffffffffffffffffffffffffffffffffffffffff1916908160001a90535082806001019350506105be565b8095505050505050919050565b602060405190810160405280600081525090565b604051610758806106b083390190565b60206040519081016040528060008152509056006060604052341561000f57600080fd5b6040516080806107588339810160405280805190602001909190805190602001909190805190602001909190805190602001909190505083600160006101000a81548173ffffffffffffffffffffffffffffffffffffffff021916908373ffffffffffffffffffffffffffffffffffffffff16021790555082600260006101000a81548173ffffffffffffffffffffffffffffffffffffffff021916908373ffffffffffffffffffffffffffffffffffffffff160217905550816003816000191690555080600460006101000a81548160ff02191690831515021790555050505050610658806101006000396000f30060606040526004361061008e576000357c0100000000000000000000000000000000000000000000000000000000900463ffffffff16806322c9240d146100935780633aaa5920146100c05780633bc5de30146101155780635d1ca631146101a35780637b0f9a36146101cc5780639d2c3eb514610221578063d0e0ba9514610252578063fd3e50a714610275575b600080fd5b341561009e57600080fd5b6100a661028a565b604051808215151515815260200191505060405180910390f35b34156100cb57600080fd5b6100d36102a1565b604051808273ffffffffffffffffffffffffffffffffffffffff1673ffffffffffffffffffffffffffffffffffffffff16815260200191505060405180910390f35b341561012057600080fd5b6101286102cb565b6040518080602001828103825283818151815260200191508051906020019080838360005b8381101561016857808201518184015260208101905061014d565b50505050905090810190601f1680156101955780820380516001836020036101000a031916815260200191505b509250505060405180910390f35b34156101ae57600080fd5b6101b66102e3565b6040518082815260200191505060405180910390f35b34156101d757600080fd5b6101df6102ec565b604051808273ffffffffffffffffffffffffffffffffffffffff1673ffffffffffffffffffffffffffffffffffffffff16815260200191505060405180910390f35b341561022c57600080fd5b610234610316565b60405180826000191660001916815260200191505060405180910390f35b341561025d57600080fd5b6102736004808035906020019091905050610320565b005b341561028057600080fd5b61028861032a565b005b6000600460009054906101000a900460ff16905090565b6000600160009054906101000a900473ffffffffffffffffffffffffffffffffffffffff16905090565b6102d3610604565b6102de600354610417565b905090565b60008054905090565b6000600260009054906101000a900473ffffffffffffffffffffffffffffffffffffffff16905090565b6000600354905090565b8060008190555050565b6001600460006101000a81548160ff021916908315150217905550600260009054906101000a900473ffffffffffffffffffffffffffffffffffffffff1673ffffffffffffffffffffffffffffffffffffffff166391aa588d306040518263ffffffff167c0100000000000000000000000000000000000000000000000000000000028152600401808273ffffffffffffffffffffffffffffffffffffffff1673ffffffffffffffffffffffffffffffffffffffff168152602001915050600060405180830381600087803b151561040157600080fd5b6102c65a03f1151561041257600080fd5b505050565b61041f610604565b610427610618565b6000806000610434610618565b60206040518059106104435750595b9080825280601f01601f1916602001820160405250945060009350600092505b6020831015610521578260080260020a876001900402600102915060007f010000000000000000000000000000000000000000000000000000000000000002827effffffffffffffffffffffffffffffffffffffffffffffffffffffffffffff1916141515610514578185858151811015156104db57fe5b9060200101907effffffffffffffffffffffffffffffffffffffffffffffffffffffffffffff1916908160001a90535083806001019450505b8280600101935050610463565b8360405180591061052f5750595b9080825280601f01601f19166020018201604052509050600092505b838310156105f757848381518110151561056157fe5b9060200101517f010000000000000000000000000000000000000000000000000000000000000090047f01000000000000000000000000000000000000000000000000000000000000000281848151811015156105ba57fe5b9060200101907effffffffffffffffffffffffffffffffffffffffffffffffffffffffffffff1916908160001a905350828060010193505061054b565b8095505050505050919050565b602060405190810160405280600081525090565b6020604051908101604052806000815250905600a165627a7a723058209d16bafbcaf2700c72e5bed702c57b2368386bd23cb93e45887195fdff1b32ac0029a165627a7a7230582015b0c09901e433e81257306d0fd571919f9d8cf817eb426ab1ebbfc012fec90c0029",
  "source": "import \"./Patient.sol\";\nimport \"./Prescription.sol\";\n\npragma solidity ^0.4.8;\n\ncontract Doctor {\n    bytes32 name;\n    event PrescriptionCreated();\n\n    function Doctor(bytes32 nameParam) public {\n        name = nameParam;\n    }\n\n    function writePrescription(address patient, bytes32 drugName) public returns (address prescriptionAddr, address doctorAddr, address patientAddr) {\n        var newPrescription = new Prescription(this, patient, drugName, false);\n        var p = Patient(patient);\n        newPrescription.setId(p.getNoOfPrescriptions());\n        p.addPrescription(newPrescription);\n        prescriptionAddr = newPrescription;\n        doctorAddr = this;\n        patientAddr = patient;\n        PrescriptionCreated();\n    }\n\n    function getData() public view returns (string) {\n        return bytes32ToString(name);\n    }\n\n    function bytes32ToString(bytes32 x) private pure returns (string) {\n        bytes memory bytesString = new bytes(32);\n        uint charCount = 0;\n        for (uint j = 0; j < 32; j++) {\n            byte char = byte(bytes32(uint(x) * 2 ** (8 * j)));\n            if (char != 0) {\n                bytesString[charCount] = char;\n                charCount++;\n            }\n        }\n        bytes memory bytesStringTrimmed = new bytes(charCount);\n        for (j = 0; j < charCount; j++) {\n            bytesStringTrimmed[j] = bytesString[j];\n        }\n        return string(bytesStringTrimmed);\n    }\n}",
  "sourcePath": "/Users/ali/rwth/hackathon/dpm/contracts/Doctor.sol",
  "compiler": {
    "name": "solc",
    "version": "0.4.18+commit.9cf6e910.Emscripten.clang"
  },
  "schemaVersion": "1.0.1",
  "updatedAt": "2017-11-12T01:38:34.710Z"
}