{
  "contractName": "DrugStore",
  "abi": [
    {
      "constant": false,
      "inputs": [
        {
          "name": "patient",
          "type": "address"
        },
        {
          "name": "prescription",
          "type": "address"
        }
      ],
      "name": "verify",
      "outputs": [
        {
          "name": "",
          "type": "string"
        }
      ],
      "payable": false,
      "stateMutability": "nonpayable",
      "type": "function"
    },
    {
      "inputs": [
        {
          "name": "nameP",
          "type": "bytes32"
        }
      ],
      "payable": false,
      "stateMutability": "nonpayable",
      "type": "constructor"
    }
  ],
  "bytecode": "0x6060604052341561000f57600080fd5b60405160208061037883398101604052808051906020019091905050806000816000191690555050610332806100466000396000f300606060405260043610610041576000357c0100000000000000000000000000000000000000000000000000000000900463ffffffff1680632c2146aa14610046575b600080fd5b341561005157600080fd5b61009c600480803573ffffffffffffffffffffffffffffffffffffffff1690602001909190803573ffffffffffffffffffffffffffffffffffffffff16906020019091905050610117565b6040518080602001828103825283818151815260200191508051906020019080838360005b838110156100dc5780820151818401526020810190506100c1565b50505050905090810190601f1680156101095780820380516001836020036101000a031916815260200191505b509250505060405180910390f35b61011f6102f2565b6000808491508390508173ffffffffffffffffffffffffffffffffffffffff166271a32f826000604051602001526040518263ffffffff167c0100000000000000000000000000000000000000000000000000000000028152600401808273ffffffffffffffffffffffffffffffffffffffff1673ffffffffffffffffffffffffffffffffffffffff168152602001915050602060405180830381600087803b15156101ca57600080fd5b6102c65a03f115156101db57600080fd5b50505060405180519050156102ea578073ffffffffffffffffffffffffffffffffffffffff1663fd3e50a76040518163ffffffff167c0100000000000000000000000000000000000000000000000000000000028152600401600060405180830381600087803b151561024d57600080fd5b6102c65a03f1151561025e57600080fd5b5050508073ffffffffffffffffffffffffffffffffffffffff16633bc5de306000604051602001526040518163ffffffff167c0100000000000000000000000000000000000000000000000000000000028152600401602060405180830381600087803b15156102cd57600080fd5b6102c65a03f115156102de57600080fd5b50505060405180519050505b505092915050565b6020604051908101604052806000815250905600a165627a7a7230582083983ad7bf5809b4bd7e8fa924c0ad3f9910cf3b5998d41d1507e6ba8979e0700029",
  "source": "pragma solidity ^0.4.8;\n\nimport \"./Patient.sol\";\n\ncontract DrugStore {\n    bytes32 name;\n\n    function DrugStore(bytes32 nameP) public {\n        name = nameP;\n    }\n\n    function verify(address patient, address prescription) public returns (string) {\n        var p = Patient(patient);\n        var pre = Prescription(prescription);\n        if (p.validPrescription(pre)) {\n            pre.deliver();\n            pre.getData();\n        }\n    }\n}\n",
  "sourcePath": "/Users/ali/rwth/hackathon/dpm/contracts/DrugStore.sol",
  "compiler": {
    "name": "solc",
    "version": "0.4.18+commit.9cf6e910.Emscripten.clang"
  },
  "schemaVersion": "1.0.1",
  "updatedAt": "2017-11-12T01:05:04.730Z"
}