{
  "contractName": "DrugStore",
  "abi": [
    {
      "constant": false,
      "inputs": [
        {
          "name": "patient",
          "type": "address"
        },
        {
          "name": "prescriptionID",
          "type": "uint256"
        }
      ],
      "name": "verify",
      "outputs": [
        {
          "name": "",
          "type": "string"
        }
      ],
      "payable": false,
      "stateMutability": "nonpayable",
      "type": "function"
    },
    {
      "constant": false,
      "inputs": [
        {
          "name": "patient",
          "type": "address"
        },
        {
          "name": "prescriptionID",
          "type": "uint256"
        }
      ],
      "name": "delivered",
      "outputs": [
        {
          "name": "",
          "type": "bool"
        }
      ],
      "payable": false,
      "stateMutability": "nonpayable",
      "type": "function"
    },
    {
      "inputs": [
        {
          "name": "nameP",
          "type": "bytes32"
        }
      ],
      "payable": false,
      "stateMutability": "nonpayable",
      "type": "constructor"
    },
    {
      "anonymous": false,
      "inputs": [],
      "name": "PrescriptionVerified",
      "type": "event"
    },
    {
      "anonymous": false,
      "inputs": [],
      "name": "PrescriptionDelivered",
      "type": "event"
    }
  ],
  "bytecode": "0x6060604052341561000f57600080fd5b604051602080610539833981016040528080519060200190919050508060008160001916905550506104f3806100466000396000f30060606040526004361061004c576000357c0100000000000000000000000000000000000000000000000000000000900463ffffffff1680636704fe9f146100515780637b0877931461010c575b600080fd5b341561005c57600080fd5b610091600480803573ffffffffffffffffffffffffffffffffffffffff16906020019091908035906020019091905050610166565b6040518080602001828103825283818151815260200191508051906020019080838360005b838110156100d15780820151818401526020810190506100b6565b50505050905090810190601f1680156100fe5780820380516001836020036101000a031916815260200191505b509250505060405180910390f35b341561011757600080fd5b61014c600480803573ffffffffffffffffffffffffffffffffffffffff16906020019091908035906020019091905050610216565b604051808215151515815260200191505060405180910390f35b61016e61049f565b60008373ffffffffffffffffffffffffffffffffffffffff16637a329c2a846000604051602001526040518263ffffffff167c010000000000000000000000000000000000000000000000000000000002815260040180828152602001915050602060405180830381600087803b15156101e757600080fd5b6102c65a03f115156101f857600080fd5b50505060405180519050905061020d816102b2565b91505092915050565b60008273ffffffffffffffffffffffffffffffffffffffff1663ef4bbce9836000604051602001526040518263ffffffff167c010000000000000000000000000000000000000000000000000000000002815260040180828152602001915050602060405180830381600087803b151561028f57600080fd5b6102c65a03f115156102a057600080fd5b50505060405180519050905092915050565b6102ba61049f565b6102c26104b3565b60008060006102cf6104b3565b60206040518059106102de5750595b9080825280601f01601f1916602001820160405250945060009350600092505b60208310156103bc578260080260020a876001900402600102915060007f010000000000000000000000000000000000000000000000000000000000000002827effffffffffffffffffffffffffffffffffffffffffffffffffffffffffffff19161415156103af5781858581518110151561037657fe5b9060200101907effffffffffffffffffffffffffffffffffffffffffffffffffffffffffffff1916908160001a90535083806001019450505b82806001019350506102fe565b836040518059106103ca5750595b9080825280601f01601f19166020018201604052509050600092505b838310156104925784838151811015156103fc57fe5b9060200101517f010000000000000000000000000000000000000000000000000000000000000090047f010000000000000000000000000000000000000000000000000000000000000002818481518110151561045557fe5b9060200101907effffffffffffffffffffffffffffffffffffffffffffffffffffffffffffff1916908160001a90535082806001019350506103e6565b8095505050505050919050565b602060405190810160405280600081525090565b6020604051908101604052806000815250905600a165627a7a72305820f9e74a3eda2439efd2e1c73fd59926e721337f03108ce2f4ada9e30421412b8d0029",
  "source": "pragma solidity ^0.4.8;\n\nimport \"./Patient.sol\";\n\ncontract DrugStore {\n    bytes32 name;\n    event PrescriptionVerified();\n    event PrescriptionDelivered();\n\n    function DrugStore(bytes32 nameP) public {\n        name = nameP;\n    }\n\n    function verify(address patient, uint prescriptionID) public returns (string) {\n        var drugs = Patient(patient).getPrescriptionData(prescriptionID);\n        return bytes32ToString(drugs);\n        PrescriptionVerified();\n    }\n\n    function delivered(address patient, uint prescriptionID) public returns (bool) {\n        return Patient(patient).prescriptionDelivered(prescriptionID);\n        PrescriptionDelivered();\n    }\n\n    function bytes32ToString(bytes32 x) private returns (string) {\n        bytes memory bytesString = new bytes(32);\n        uint charCount = 0;\n        for (uint j = 0; j < 32; j++) {\n            byte char = byte(bytes32(uint(x) * 2 ** (8 * j)));\n            if (char != 0) {\n                bytesString[charCount] = char;\n                charCount++;\n            }\n        }\n        bytes memory bytesStringTrimmed = new bytes(charCount);\n        for (j = 0; j < charCount; j++) {\n            bytesStringTrimmed[j] = bytesString[j];\n        }\n        return string(bytesStringTrimmed);\n    }\n}\n",
  "sourcePath": "D:\\Projects\\LauzHack\\contracts\\DrugStore.sol",
  "compiler": {
    "name": "solc",
    "version": "0.4.18+commit.9cf6e910.Emscripten.clang"
  },
  "schemaVersion": "1.0.1",
  "updatedAt": "2017-11-12T05:40:44.741Z"
}