{
  "contractName": "Patient",
  "abi": [
    {
      "constant": true,
      "inputs": [
        {
          "name": "prescription",
          "type": "address"
        }
      ],
      "name": "validPrescription",
      "outputs": [
        {
          "name": "",
          "type": "bool"
        }
      ],
      "payable": false,
      "stateMutability": "view",
      "type": "function"
    },
    {
      "constant": false,
      "inputs": [
        {
          "name": "prescription",
          "type": "address"
        }
      ],
      "name": "addPrescription",
      "outputs": [],
      "payable": false,
      "stateMutability": "nonpayable",
      "type": "function"
    },
    {
      "constant": true,
      "inputs": [],
      "name": "getData",
      "outputs": [
        {
          "name": "ssnRet",
          "type": "string"
        },
        {
          "name": "insuranceIdRet",
          "type": "string"
        },
        {
          "name": "insuranceNameRet",
          "type": "string"
        }
      ],
      "payable": false,
      "stateMutability": "view",
      "type": "function"
    },
    {
      "constant": true,
      "inputs": [
        {
          "name": "i",
          "type": "uint256"
        }
      ],
      "name": "getPrescription",
      "outputs": [
        {
          "name": "prescriptionAddress",
          "type": "address"
        },
        {
          "name": "drugName",
          "type": "string"
        },
        {
          "name": "patientAddress",
          "type": "address"
        },
        {
          "name": "doctorAddress",
          "type": "address"
        },
        {
          "name": "delivered",
          "type": "bool"
        }
      ],
      "payable": false,
      "stateMutability": "view",
      "type": "function"
    },
    {
      "constant": true,
      "inputs": [
        {
          "name": "prescription",
          "type": "address"
        }
      ],
      "name": "existPrescription",
      "outputs": [
        {
          "name": "",
          "type": "bool"
        }
      ],
      "payable": false,
      "stateMutability": "view",
      "type": "function"
    },
    {
      "constant": false,
      "inputs": [
        {
          "name": "prescription",
          "type": "address"
        }
      ],
      "name": "removePrescription",
      "outputs": [],
      "payable": false,
      "stateMutability": "nonpayable",
      "type": "function"
    },
    {
      "constant": true,
      "inputs": [],
      "name": "getNoOfHistories",
      "outputs": [
        {
          "name": "",
          "type": "uint256"
        }
      ],
      "payable": false,
      "stateMutability": "view",
      "type": "function"
    },
    {
      "constant": true,
      "inputs": [],
      "name": "getNoOfPrescriptions",
      "outputs": [
        {
          "name": "",
          "type": "uint256"
        }
      ],
      "payable": false,
      "stateMutability": "view",
      "type": "function"
    },
    {
      "constant": true,
      "inputs": [
        {
          "name": "i",
          "type": "uint256"
        }
      ],
      "name": "getHistoryPrescription",
      "outputs": [
        {
          "name": "prescriptionAddress",
          "type": "address"
        },
        {
          "name": "drugName",
          "type": "string"
        },
        {
          "name": "patientAddress",
          "type": "address"
        },
        {
          "name": "doctorAddress",
          "type": "address"
        },
        {
          "name": "delivered",
          "type": "bool"
        }
      ],
      "payable": false,
      "stateMutability": "view",
      "type": "function"
    },
    {
      "inputs": [
        {
          "name": "ssnParam",
          "type": "bytes32"
        },
        {
          "name": "insuranceIdParam",
          "type": "bytes32"
        },
        {
          "name": "insuranceNameParam",
          "type": "bytes32"
        }
      ],
      "payable": false,
      "stateMutability": "nonpayable",
      "type": "constructor"
    },
    {
      "anonymous": false,
      "inputs": [
        {
          "indexed": false,
          "name": "prescription",
          "type": "address"
        }
      ],
      "name": "PrescriptionRemoved",
      "type": "event"
    }
  ],
  "bytecode": "0x6060604052341561000f57600080fd5b6040516060806114908339810160405280805190602001909190805190602001909190805190602001909190505082600081600019169055508160018160001916905550806002816000191690555060006003819055506000600481905550505050611410806100806000396000f300606060405260043610610098576000357c0100000000000000000000000000000000000000000000000000000000900463ffffffff16806271a32f1461009d5780633abcc64c146100ee5780633bc5de30146101275780636f16af101461028d578063838635d0146103cd57806391aa588d1461041e5780639f1121e714610457578063d56e19f114610480578063d5abf147146104a9575b600080fd5b34156100a857600080fd5b6100d4600480803573ffffffffffffffffffffffffffffffffffffffff169060200190919050506105e9565b604051808215151515815260200191505060405180910390f35b34156100f957600080fd5b610125600480803573ffffffffffffffffffffffffffffffffffffffff16906020019091905050610691565b005b341561013257600080fd5b61013a610778565b60405180806020018060200180602001848103845287818151815260200191508051906020019080838360005b83811015610182578082015181840152602081019050610167565b50505050905090810190601f1680156101af5780820380516001836020036101000a031916815260200191505b50848103835286818151815260200191508051906020019080838360005b838110156101e85780820151818401526020810190506101cd565b50505050905090810190601f1680156102155780820380516001836020036101000a031916815260200191505b50848103825285818151815260200191508051906020019080838360005b8381101561024e578082015181840152602081019050610233565b50505050905090810190601f16801561027b5780820380516001836020036101000a031916815260200191505b50965050505050505060405180910390f35b341561029857600080fd5b6102ae60048080359060200190919050506107bc565b604051808673ffffffffffffffffffffffffffffffffffffffff1673ffffffffffffffffffffffffffffffffffffffff168152602001806020018573ffffffffffffffffffffffffffffffffffffffff1673ffffffffffffffffffffffffffffffffffffffff1681526020018473ffffffffffffffffffffffffffffffffffffffff1673ffffffffffffffffffffffffffffffffffffffff16815260200183151515158152602001828103825286818151815260200191508051906020019080838360005b8381101561038e578082015181840152602081019050610373565b50505050905090810190601f1680156103bb5780820380516001836020036101000a031916815260200191505b50965050505050505060405180910390f35b34156103d857600080fd5b610404600480803573ffffffffffffffffffffffffffffffffffffffff16906020019091905050610a9a565b604051808215151515815260200191505060405180910390f35b341561042957600080fd5b610455600480803573ffffffffffffffffffffffffffffffffffffffff16906020019091905050610b36565b005b341561046257600080fd5b61046a610f3c565b6040518082815260200191505060405180910390f35b341561048b57600080fd5b610493610f46565b6040518082815260200191505060405180910390f35b34156104b457600080fd5b6104ca6004808035906020019091905050610f50565b604051808673ffffffffffffffffffffffffffffffffffffffff1673ffffffffffffffffffffffffffffffffffffffff168152602001806020018573ffffffffffffffffffffffffffffffffffffffff1673ffffffffffffffffffffffffffffffffffffffff1681526020018473ffffffffffffffffffffffffffffffffffffffff1673ffffffffffffffffffffffffffffffffffffffff16815260200183151515158152602001828103825286818151815260200191508051906020019080838360005b838110156105aa57808201518184015260208101905061058f565b50505050905090810190601f1680156105d75780820380516001836020036101000a031916815260200191505b50965050505050505060405180910390f35b60006105f482610a9a565b801561068a5750600015158273ffffffffffffffffffffffffffffffffffffffff166322c9240d6000604051602001526040518163ffffffff167c0100000000000000000000000000000000000000000000000000000000028152600401602060405180830381600087803b151561066b57600080fd5b6102c65a03f1151561067c57600080fd5b505050604051805190501515145b9050919050565b8060066000600354815260200190815260200160002060006101000a81548173ffffffffffffffffffffffffffffffffffffffff021916908373ffffffffffffffffffffffffffffffffffffffff16021790555080600560008373ffffffffffffffffffffffffffffffffffffffff1673ffffffffffffffffffffffffffffffffffffffff16815260200190815260200160002060006101000a81548173ffffffffffffffffffffffffffffffffffffffff021916908373ffffffffffffffffffffffffffffffffffffffff16021790555060036000815480929190600101919050555050565b6107806113bc565b6107886113bc565b6107906113bc565b61079b6000546111cf565b92506107a86001546111cf565b91506107b56002546111cf565b9050909192565b60006107c66113bc565b6000806000806006600088815260200190815260200160002060009054906101000a900473ffffffffffffffffffffffffffffffffffffffff169550600560008773ffffffffffffffffffffffffffffffffffffffff1673ffffffffffffffffffffffffffffffffffffffff16815260200190815260200160002060009054906101000a900473ffffffffffffffffffffffffffffffffffffffff1690506108f38173ffffffffffffffffffffffffffffffffffffffff16639d2c3eb56000604051602001526040518163ffffffff167c0100000000000000000000000000000000000000000000000000000000028152600401602060405180830381600087803b15156108d357600080fd5b6102c65a03f115156108e457600080fd5b505050604051805190506111cf565b94508073ffffffffffffffffffffffffffffffffffffffff16637b0f9a366000604051602001526040518163ffffffff167c0100000000000000000000000000000000000000000000000000000000028152600401602060405180830381600087803b151561096157600080fd5b6102c65a03f1151561097257600080fd5b5050506040518051905093508073ffffffffffffffffffffffffffffffffffffffff16633aaa59206000604051602001526040518163ffffffff167c0100000000000000000000000000000000000000000000000000000000028152600401602060405180830381600087803b15156109ea57600080fd5b6102c65a03f115156109fb57600080fd5b5050506040518051905092508073ffffffffffffffffffffffffffffffffffffffff166322c9240d6000604051602001526040518163ffffffff167c0100000000000000000000000000000000000000000000000000000000028152600401602060405180830381600087803b1515610a7357600080fd5b6102c65a03f11515610a8457600080fd5b5050506040518051905091505091939590929450565b600080600560008473ffffffffffffffffffffffffffffffffffffffff1673ffffffffffffffffffffffffffffffffffffffff16815260200190815260200160002060009054906101000a900473ffffffffffffffffffffffffffffffffffffffff1690508273ffffffffffffffffffffffffffffffffffffffff168173ffffffffffffffffffffffffffffffffffffffff1614915050919050565b600080600560008473ffffffffffffffffffffffffffffffffffffffff1673ffffffffffffffffffffffffffffffffffffffff16815260200190815260200160002060009054906101000a900473ffffffffffffffffffffffffffffffffffffffff1673ffffffffffffffffffffffffffffffffffffffff16635d1ca6316000604051602001526040518163ffffffff167c0100000000000000000000000000000000000000000000000000000000028152600401602060405180830381600087803b1515610c0457600080fd5b6102c65a03f11515610c1557600080fd5b5050506040518051905091506003600081548092919060019003919050555060066000600354815260200190815260200160002060009054906101000a900473ffffffffffffffffffffffffffffffffffffffff16905060066000600354815260200190815260200160002060009054906101000a900473ffffffffffffffffffffffffffffffffffffffff166006600084815260200190815260200160002060006101000a81548173ffffffffffffffffffffffffffffffffffffffff021916908373ffffffffffffffffffffffffffffffffffffffff160217905550600560008273ffffffffffffffffffffffffffffffffffffffff1673ffffffffffffffffffffffffffffffffffffffff16815260200190815260200160002060009054906101000a900473ffffffffffffffffffffffffffffffffffffffff1673ffffffffffffffffffffffffffffffffffffffff1663d0e0ba95836040518263ffffffff167c010000000000000000000000000000000000000000000000000000000002815260040180828152602001915050600060405180830381600087803b1515610dc057600080fd5b6102c65a03f11515610dd157600080fd5b505050600560008473ffffffffffffffffffffffffffffffffffffffff1673ffffffffffffffffffffffffffffffffffffffff16815260200190815260200160002060006101000a81549073ffffffffffffffffffffffffffffffffffffffff021916905560066000600354815260200190815260200160002060006101000a81549073ffffffffffffffffffffffffffffffffffffffff02191690558260076000600454815260200190815260200160002060006101000a81548173ffffffffffffffffffffffffffffffffffffffff021916908373ffffffffffffffffffffffffffffffffffffffff1602179055506004600081548092919060010191905055507fe23e452a04e77c40ea721d017df4833691ef8ae06f0b5139bcf9bf86fc0086b283604051808273ffffffffffffffffffffffffffffffffffffffff1673ffffffffffffffffffffffffffffffffffffffff16815260200191505060405180910390a1505050565b6000600454905090565b6000600354905090565b6000610f5a6113bc565b6000806000806007600088815260200190815260200160002060009054906101000a900473ffffffffffffffffffffffffffffffffffffffff1695508590506110288173ffffffffffffffffffffffffffffffffffffffff16639d2c3eb56000604051602001526040518163ffffffff167c0100000000000000000000000000000000000000000000000000000000028152600401602060405180830381600087803b151561100857600080fd5b6102c65a03f1151561101957600080fd5b505050604051805190506111cf565b94508073ffffffffffffffffffffffffffffffffffffffff16637b0f9a366000604051602001526040518163ffffffff167c0100000000000000000000000000000000000000000000000000000000028152600401602060405180830381600087803b151561109657600080fd5b6102c65a03f115156110a757600080fd5b5050506040518051905093508073ffffffffffffffffffffffffffffffffffffffff16633aaa59206000604051602001526040518163ffffffff167c0100000000000000000000000000000000000000000000000000000000028152600401602060405180830381600087803b151561111f57600080fd5b6102c65a03f1151561113057600080fd5b5050506040518051905092508073ffffffffffffffffffffffffffffffffffffffff166322c9240d6000604051602001526040518163ffffffff167c0100000000000000000000000000000000000000000000000000000000028152600401602060405180830381600087803b15156111a857600080fd5b6102c65a03f115156111b957600080fd5b5050506040518051905091505091939590929450565b6111d76113bc565b6111df6113d0565b60008060006111ec6113d0565b60206040518059106111fb5750595b9080825280601f01601f1916602001820160405250945060009350600092505b60208310156112d9578260080260020a876001900402600102915060007f010000000000000000000000000000000000000000000000000000000000000002827effffffffffffffffffffffffffffffffffffffffffffffffffffffffffffff19161415156112cc5781858581518110151561129357fe5b9060200101907effffffffffffffffffffffffffffffffffffffffffffffffffffffffffffff1916908160001a90535083806001019450505b828060010193505061121b565b836040518059106112e75750595b9080825280601f01601f19166020018201604052509050600092505b838310156113af57848381518110151561131957fe5b9060200101517f010000000000000000000000000000000000000000000000000000000000000090047f010000000000000000000000000000000000000000000000000000000000000002818481518110151561137257fe5b9060200101907effffffffffffffffffffffffffffffffffffffffffffffffffffffffffffff1916908160001a9053508280600101935050611303565b8095505050505050919050565b602060405190810160405280600081525090565b6020604051908101604052806000815250905600a165627a7a7230582067b95c6c6393345ba4d71eefe21faedb5dd9b71e514b2fdfe1b0cb184693a3690029",
  "source": "import \"./Prescription.sol\";\n\npragma solidity ^0.4.8;\n\ncontract Patient {\n    bytes32 ssn;\n    bytes32 insuranceId;\n    bytes32 insuranceName;\n    uint noOfPrescriptions;\n    uint noOfHistories;\n\n    mapping (address => Prescription) prescriptions;\n    mapping (uint => address) prescriptions_idx;\n    mapping (uint => address) histories;\n\n    event PrescriptionRemoved(address prescription);\n\n    function Patient(bytes32 ssnParam, bytes32 insuranceIdParam, bytes32 insuranceNameParam) public {\n        ssn = ssnParam;\n        insuranceId = insuranceIdParam;\n        insuranceName = insuranceNameParam;\n        noOfPrescriptions = 0;\n        noOfHistories = 0;\n    }\n\n    function getNoOfPrescriptions() public view returns (uint) {\n        return noOfPrescriptions;\n    }\n\n    function getNoOfHistories() public view returns (uint) {\n        return noOfHistories;\n    }\n\n    function addPrescription(Prescription prescription) public {\n        prescriptions_idx[noOfPrescriptions] = prescription;\n        prescriptions[prescription] = prescription;\n        noOfPrescriptions++;\n    }\n\n    function getPrescription(uint i) public view returns (address prescriptionAddress, string drugName, address patientAddress, address doctorAddress, bool delivered) {\n        prescriptionAddress = prescriptions_idx[i];\n        var prescription = prescriptions[prescriptionAddress];\n        drugName = bytes32ToString(prescription.getDrugName());\n        patientAddress = prescription.getPatient();\n        doctorAddress =  prescription.getDoctor();\n        delivered = prescription.getDelivered();\n    }\n\n    function getHistoryPrescription(uint i) public view returns (address prescriptionAddress, string drugName, address patientAddress, address doctorAddress, bool delivered) {\n        prescriptionAddress = histories[i];\n        var prescription = Prescription(prescriptionAddress);\n        drugName = bytes32ToString(prescription.getDrugName());\n        patientAddress = prescription.getPatient();\n        doctorAddress =  prescription.getDoctor();\n        delivered = prescription.getDelivered();\n    }\n\n    function removePrescription(address prescription) public {\n        // get the id\n        uint prescriptionId = prescriptions[prescription].getId();\n        noOfPrescriptions--;\n\n        // get last obj\n        address lastPrescription = prescriptions_idx[noOfPrescriptions];\n\n        // move the last to the removed idx\n        prescriptions_idx[prescriptionId] = prescriptions_idx[noOfPrescriptions];\n\n        // update the last obj id\n        prescriptions[lastPrescription].setId(prescriptionId);\n        delete prescriptions[prescription];\n        delete prescriptions_idx[noOfPrescriptions];\n\n        histories[noOfHistories] = prescription;\n        noOfHistories++;\n        PrescriptionRemoved(prescription);\n    }\n\n    function validPrescription(Prescription prescription) public view returns (bool) {\n        return existPrescription(prescription) && prescription.getDelivered() == false;\n    }\n\n    function existPrescription(Prescription prescription) public view returns (bool) {\n        Prescription data = prescriptions[prescription];\n        return data == prescription;\n    }\n\n    function getData() public view returns (string ssnRet, string insuranceIdRet, string insuranceNameRet) {\n        ssnRet = bytes32ToString(ssn);\n        insuranceIdRet = bytes32ToString(insuranceId);\n        insuranceNameRet = bytes32ToString(insuranceName);\n    }\n\n    function bytes32ToString(bytes32 x) private pure returns (string) {\n        bytes memory bytesString = new bytes(32);\n        uint charCount = 0;\n        for (uint j = 0; j < 32; j++) {\n            byte char = byte(bytes32(uint(x) * 2 ** (8 * j)));\n            if (char != 0) {\n                bytesString[charCount] = char;\n                charCount++;\n            }\n        }\n        bytes memory bytesStringTrimmed = new bytes(charCount);\n        for (j = 0; j < charCount; j++) {\n            bytesStringTrimmed[j] = bytesString[j];\n        }\n        return string(bytesStringTrimmed);\n    }\n}",
  "sourcePath": "/Users/ali/rwth/hackathon/dpm/contracts/Patient.sol",
  "compiler": {
    "name": "solc",
    "version": "0.4.18+commit.9cf6e910.Emscripten.clang"
  },
  "schemaVersion": "1.0.1",
  "updatedAt": "2017-11-11T23:49:20.337Z"
}