{
  "contractName": "Patient",
  "abi": [
    {
      "constant": true,
      "inputs": [
        {
          "name": "id",
          "type": "uint256"
        }
      ],
      "name": "getPrescriptionHistory",
      "outputs": [
        {
          "name": "drugs",
          "type": "string"
        },
        {
          "name": "qty",
          "type": "string"
        }
      ],
      "payable": false,
      "stateMutability": "view",
      "type": "function"
    },
    {
      "constant": true,
      "inputs": [],
      "name": "getPrescriptionHistoryCount",
      "outputs": [
        {
          "name": "count",
          "type": "uint256"
        }
      ],
      "payable": false,
      "stateMutability": "view",
      "type": "function"
    },
    {
      "constant": false,
      "inputs": [
        {
          "name": "doctorAddress",
          "type": "address"
        },
        {
          "name": "drugDetails",
          "type": "bytes32"
        },
        {
          "name": "drugQty",
          "type": "bytes32"
        }
      ],
      "name": "addPrescription",
      "outputs": [
        {
          "name": "",
          "type": "uint256"
        }
      ],
      "payable": false,
      "stateMutability": "nonpayable",
      "type": "function"
    },
    {
      "constant": false,
      "inputs": [
        {
          "name": "id",
          "type": "uint256"
        },
        {
          "name": "drugDetails",
          "type": "bytes32"
        }
      ],
      "name": "getPrescriptionData",
      "outputs": [
        {
          "name": "drugs",
          "type": "string"
        },
        {
          "name": "qty",
          "type": "string"
        }
      ],
      "payable": false,
      "stateMutability": "nonpayable",
      "type": "function"
    },
    {
      "constant": true,
      "inputs": [],
      "name": "getNoOfPrescriptions",
      "outputs": [
        {
          "name": "",
          "type": "uint256"
        }
      ],
      "payable": false,
      "stateMutability": "view",
      "type": "function"
    },
    {
      "constant": false,
      "inputs": [
        {
          "name": "id",
          "type": "uint256"
        }
      ],
      "name": "prescriptionDelivered",
      "outputs": [
        {
          "name": "",
          "type": "bool"
        }
      ],
      "payable": false,
      "stateMutability": "nonpayable",
      "type": "function"
    },
    {
      "constant": true,
      "inputs": [],
      "name": "getDetails",
      "outputs": [
        {
          "name": "ssnRet",
          "type": "string"
        },
        {
          "name": "insuranceIdRet",
          "type": "string"
        },
        {
          "name": "insuranceNameRet",
          "type": "string"
        }
      ],
      "payable": false,
      "stateMutability": "view",
      "type": "function"
    },
    {
      "inputs": [
        {
          "name": "ssnParam",
          "type": "bytes32"
        },
        {
          "name": "insuranceIdParam",
          "type": "bytes32"
        },
        {
          "name": "insuranceNameParam",
          "type": "bytes32"
        }
      ],
      "payable": false,
      "stateMutability": "nonpayable",
      "type": "constructor"
    },
    {
      "anonymous": false,
      "inputs": [],
      "name": "PrescriptionDelivered",
      "type": "event"
    },
    {
      "anonymous": false,
      "inputs": [
        {
          "indexed": false,
          "name": "prescription",
          "type": "address"
        }
      ],
      "name": "PrescriptionCreated",
      "type": "event"
    },
    {
      "anonymous": false,
      "inputs": [
        {
          "indexed": false,
          "name": "prescription",
          "type": "address"
        }
      ],
      "name": "PrescriptionRemoved",
      "type": "event"
    }
  ],
  "bytecode": "0x6060604052341561000f57600080fd5b604051606080610bda8339810160405280805190602001909190805190602001909190805190602001909190505082600081600019169055508160018160001916905550806002816000191690555060006003819055506000600481905550505050610b5a806100806000396000f300606060405260043610610083576000357c0100000000000000000000000000000000000000000000000000000000900463ffffffff16806307f84f8d146100885780634b95f2f51461019057806355880fed146101b95780637a329c2a14610220578063d56e19f114610328578063ef4bbce914610351578063fbbf93a01461038c575b600080fd5b341561009357600080fd5b6100a960048080359060200190919050506104f2565b604051808060200180602001838103835285818151815260200191508051906020019080838360005b838110156100ed5780820151818401526020810190506100d2565b50505050905090810190601f16801561011a5780820380516001836020036101000a031916815260200191505b50838103825284818151815260200191508051906020019080838360005b83811015610153578082015181840152602081019050610138565b50505050905090810190601f1680156101805780820380516001836020036101000a031916815260200191505b5094505050505060405180910390f35b341561019b57600080fd5b6101a3610549565b6040518082815260200191505060405180910390f35b34156101c457600080fd5b61020a600480803573ffffffffffffffffffffffffffffffffffffffff169060200190919080356000191690602001909190803560001916906020019091905050610553565b6040518082815260200191505060405180910390f35b341561022b57600080fd5b6102416004808035906020019091905050610664565b604051808060200180602001838103835285818151815260200191508051906020019080838360005b8381101561028557808201518184015260208101905061026a565b50505050905090810190601f1680156102b25780820380516001836020036101000a031916815260200191505b50838103825284818151815260200191508051906020019080838360005b838110156102eb5780820151818401526020810190506102d0565b50505050905090810190601f1680156103185780820380516001836020036101000a031916815260200191505b5094505050505060405180910390f35b341561033357600080fd5b61033b6106cb565b6040518082815260200191505060405180910390f35b341561035c57600080fd5b61037260048080359060200190919050506106d5565b604051808215151515815260200191505060405180910390f35b341561039757600080fd5b61039f610861565b60405180806020018060200180602001848103845287818151815260200191508051906020019080838360005b838110156103e75780820151818401526020810190506103cc565b50505050905090810190601f1680156104145780820380516001836020036101000a031916815260200191505b50848103835286818151815260200191508051906020019080838360005b8381101561044d578082015181840152602081019050610432565b50505050905090810190601f16801561047a5780820380516001836020036101000a031916815260200191505b50848103825285818151815260200191508051906020019080838360005b838110156104b3578082015181840152602081019050610498565b50505050905090810190601f1680156104e05780820380516001836020036101000a031916815260200191505b50965050505050505060405180910390f35b6104fa610abf565b610502610abf565b61052160066000858152602001908152602001600020600101546108a5565b915061054260066000858152602001908152602001600020600201546108a5565b9050915091565b6000600454905090565b600061055d610ad3565b6080604051908101604052808673ffffffffffffffffffffffffffffffffffffffff16815260200185600019168152602001846000191681526020016000151581525090508060056000600354815260200190815260200160002060008201518160000160006101000a81548173ffffffffffffffffffffffffffffffffffffffff021916908373ffffffffffffffffffffffffffffffffffffffff160217905550602082015181600101906000191690556040820151816002019060001916905560608201518160030160006101000a81548160ff0219169083151502179055509050506003600081548092919060010191905055506001600354039150509392505050565b61066c610abf565b610674610abf565b61067d83610a92565b15156106c6576106a260056000858152602001908152602001600020600101546108a5565b91506106c360056000858152602001908152602001600020600201546108a5565b90505b915091565b6000600354905090565b600060036000815480929190600190039190505550600560006003548152602001908152602001600020600560008481526020019081526020016000206000820160009054906101000a900473ffffffffffffffffffffffffffffffffffffffff168160000160006101000a81548173ffffffffffffffffffffffffffffffffffffffff021916908373ffffffffffffffffffffffffffffffffffffffff16021790555060018201548160010190600019169055600282015481600201906000191690556003820160009054906101000a900460ff168160030160006101000a81548160ff021916908315150217905550905050600560006003548152602001908152602001600020600080820160006101000a81549073ffffffffffffffffffffffffffffffffffffffff0219169055600182016000905560028201600090556003820160006101000a81549060ff021916905550507fa079831d93793395b7c2546c4d05d8569318729c72285bc86f5d8e6c56e7585460405160405180910390a160019050919050565b610869610abf565b610871610abf565b610879610abf565b6108846000546108a5565b92506108916001546108a5565b915061089e6002546108a5565b9050909192565b6108ad610abf565b6108b5610b1a565b60008060006108c2610b1a565b60206040518059106108d15750595b9080825280601f01601f1916602001820160405250945060009350600092505b60208310156109af578260080260020a876001900402600102915060007f010000000000000000000000000000000000000000000000000000000000000002827effffffffffffffffffffffffffffffffffffffffffffffffffffffffffffff19161415156109a25781858581518110151561096957fe5b9060200101907effffffffffffffffffffffffffffffffffffffffffffffffffffffffffffff1916908160001a90535083806001019450505b82806001019350506108f1565b836040518059106109bd5750595b9080825280601f01601f19166020018201604052509050600092505b83831015610a855784838151811015156109ef57fe5b9060200101517f010000000000000000000000000000000000000000000000000000000000000090047f0100000000000000000000000000000000000000000000000000000000000000028184815181101515610a4857fe5b9060200101907effffffffffffffffffffffffffffffffffffffffffffffffffffffffffffff1916908160001a90535082806001019350506109d9565b8095505050505050919050565b60006005600083815260200190815260200160002060030160009054906101000a900460ff169050919050565b602060405190810160405280600081525090565b608060405190810160405280600073ffffffffffffffffffffffffffffffffffffffff16815260200160008019168152602001600080191681526020016000151581525090565b6020604051908101604052806000815250905600a165627a7a723058200ba49e53f1c9d5fc4a98a89afaa1a09c3903c8700475e40445b065355f1058010029",
  "source": "pragma solidity ^0.4.8;\n\ncontract Patient {\n    bytes32 ssn;\n    bytes32 insuranceId;\n    bytes32 insuranceName;\n\n    event PrescriptionDelivered();\n    event PrescriptionCreated();\n\n    struct Prescription {\n        address doctorAddress;\n        bytes32 drugDetails;\n        bytes32 drugQty;\n        bool delivered;\n\n    }\n\n    uint noOfPrescriptions;\n    uint noOfHistories;\n\n    mapping (uint => Prescription) prescriptions;\n    mapping (uint => Prescription) histories;\n\n    event PrescriptionRemoved(address prescription);\n\n    function Patient(bytes32 ssnParam, bytes32 insuranceIdParam, bytes32 insuranceNameParam) public {\n        ssn = ssnParam;\n        insuranceId = insuranceIdParam;\n        insuranceName = insuranceNameParam;\n        noOfPrescriptions = 0;\n        noOfHistories = 0;\n    }\n\n    function addPrescription(address doctorAddress, bytes32 drugDetails, bytes32 drugQty) public returns (uint) {\n        var prescription = Prescription(doctorAddress, drugDetails, drugQty, false);\n        prescriptions[noOfPrescriptions] = prescription;\n        noOfPrescriptions++;\n        return noOfPrescriptions-1;\n        histories[noOfHistories] = prescription;\n        noOfHistories++;\n        PrescriptionCreated();\n    }\n\n    function isPrescriptionDelivered(uint id) private returns (bool){\n        return prescriptions[id].delivered;\n    }\n\n    function getPrescriptionData(uint id) public returns (string drugs, string qty) {\n        if(!isPrescriptionDelivered(id)) {\n            drugs = bytes32ToString(prescriptions[id].drugDetails);\n            qty = bytes32ToString(prescriptions[id].drugQty);\n        }\n    }\n\n    function getPrescriptionHistoryCount() public constant returns(uint count) {\n        return noOfHistories;\n    }\n\n    function getPrescriptionHistory(uint id) public constant returns (string drugs, string qty) {\n        drugs = bytes32ToString(histories[id].drugDetails);\n        qty = bytes32ToString(histories[id].drugQty);\n    }\n\n    function prescriptionDelivered(uint id) public returns (bool) {\n        noOfPrescriptions--;\n        prescriptions[id] = prescriptions[noOfPrescriptions];\n        delete prescriptions[noOfPrescriptions];\n        PrescriptionDelivered();\n        return true;\n    }\n\n    function getNoOfPrescriptions() public constant returns (uint) {\n        return noOfPrescriptions;\n    }\n\n    function getDetails() public constant returns (string ssnRet, string insuranceIdRet, string insuranceNameRet) {\n        ssnRet = bytes32ToString(ssn);\n        insuranceIdRet = bytes32ToString(insuranceId);\n        insuranceNameRet = bytes32ToString(insuranceName);\n    }\n\n    function bytes32ToString(bytes32 x) private returns (string) {\n        bytes memory bytesString = new bytes(32);\n        uint charCount = 0;\n        for (uint j = 0; j < 32; j++) {\n            byte char = byte(bytes32(uint(x) * 2 ** (8 * j)));\n            if (char != 0) {\n                bytesString[charCount] = char;\n                charCount++;\n            }\n        }\n        bytes memory bytesStringTrimmed = new bytes(charCount);\n        for (j = 0; j < charCount; j++) {\n            bytesStringTrimmed[j] = bytesString[j];\n        }\n        return string(bytesStringTrimmed);\n    }\n}",
  "sourcePath": "D:\\Projects\\LauzHack\\contracts\\Patient.sol",
  "compiler": {
    "name": "solc",
    "version": "0.4.18+commit.9cf6e910.Emscripten.clang"
  },
  "schemaVersion": "1.0.1",
  "updatedAt": "2017-11-12T06:07:56.878Z"
}