{
  "contractName": "Patient",
  "abi": [
    {
      "constant": true,
      "inputs": [
        {
          "name": "id",
          "type": "uint256"
        }
      ],
      "name": "getPrescriptionHistory",
      "outputs": [
        {
          "name": "drugs",
          "type": "bytes32"
        }
      ],
      "payable": false,
      "stateMutability": "view",
      "type": "function"
    },
    {
      "constant": true,
      "inputs": [],
      "name": "getPrescriptionHistoryCount",
      "outputs": [
        {
          "name": "",
          "type": "uint256"
        }
      ],
      "payable": false,
      "stateMutability": "view",
      "type": "function"
    },
    {
      "constant": false,
      "inputs": [
        {
          "name": "id",
          "type": "uint256"
        }
      ],
      "name": "getPrescriptionData",
      "outputs": [
        {
          "name": "drugs",
          "type": "bytes32"
        }
      ],
      "payable": false,
      "stateMutability": "nonpayable",
      "type": "function"
    },
    {
      "constant": false,
      "inputs": [
        {
          "name": "doctorAddress",
          "type": "address"
        },
        {
          "name": "drugDetails",
          "type": "bytes32"
        }
      ],
      "name": "addPrescription",
      "outputs": [
        {
          "name": "",
          "type": "uint256"
        }
      ],
      "payable": false,
      "stateMutability": "nonpayable",
      "type": "function"
    },
    {
      "constant": true,
      "inputs": [],
      "name": "getNoOfPrescriptions",
      "outputs": [
        {
          "name": "",
          "type": "uint256"
        }
      ],
      "payable": false,
      "stateMutability": "view",
      "type": "function"
    },
    {
      "constant": false,
      "inputs": [
        {
          "name": "id",
          "type": "uint256"
        }
      ],
      "name": "prescriptionDelivered",
      "outputs": [
        {
          "name": "",
          "type": "bool"
        }
      ],
      "payable": false,
      "stateMutability": "nonpayable",
      "type": "function"
    },
    {
      "constant": true,
      "inputs": [],
      "name": "getDetails",
      "outputs": [
        {
          "name": "ssnRet",
          "type": "string"
        },
        {
          "name": "insuranceIdRet",
          "type": "string"
        },
        {
          "name": "insuranceNameRet",
          "type": "string"
        }
      ],
      "payable": false,
      "stateMutability": "view",
      "type": "function"
    },
    {
      "inputs": [
        {
          "name": "ssnParam",
          "type": "bytes32"
        },
        {
          "name": "insuranceIdParam",
          "type": "bytes32"
        },
        {
          "name": "insuranceNameParam",
          "type": "bytes32"
        }
      ],
      "payable": false,
      "stateMutability": "nonpayable",
      "type": "constructor"
    },
    {
      "anonymous": false,
      "inputs": [],
      "name": "PrescriptionDelivered",
      "type": "event"
    },
    {
      "anonymous": false,
      "inputs": [
        {
          "indexed": false,
          "name": "prescription",
          "type": "address"
        }
      ],
      "name": "PrescriptionCreated",
      "type": "event"
    },
    {
      "anonymous": false,
      "inputs": [
        {
          "indexed": false,
          "name": "prescription",
          "type": "address"
        }
      ],
      "name": "PrescriptionRemoved",
      "type": "event"
    }
  ],
  "bytecode": "0x6060604052341561000f57600080fd5b604051606080610b148339810160405280805190602001909190805190602001909190805190602001909190505082600081600019169055508160018160001916905550806002816000191690555060006003819055506000600481905550505050610a94806100806000396000f300606060405260043610610083576000357c0100000000000000000000000000000000000000000000000000000000900463ffffffff16806307f84f8d146100885780634b95f2f5146100c75780637a329c2a146100f0578063d290b9bc1461012f578063d56e19f114610189578063ef4bbce9146101b2578063fbbf93a0146101ed575b600080fd5b341561009357600080fd5b6100a96004808035906020019091905050610353565b60405180826000191660001916815260200191505060405180910390f35b34156100d257600080fd5b6100da61037d565b6040518082815260200191505060405180910390f35b34156100fb57600080fd5b610111600480803590602001909190505061038a565b60405180826000191660001916815260200191505060405180910390f35b341561013a57600080fd5b610173600480803573ffffffffffffffffffffffffffffffffffffffff16906020019091908035600019169060200190919050506103ba565b6040518082815260200191505060405180910390f35b341561019457600080fd5b61019c6104b0565b6040518082815260200191505060405180910390f35b34156101bd57600080fd5b6101d360048080359060200190919050506104ba565b604051808215151515815260200191505060405180910390f35b34156101f857600080fd5b610200610711565b60405180806020018060200180602001848103845287818151815260200191508051906020019080838360005b8381101561024857808201518184015260208101905061022d565b50505050905090810190601f1680156102755780820380516001836020036101000a031916815260200191505b50848103835286818151815260200191508051906020019080838360005b838110156102ae578082015181840152602081019050610293565b50505050905090810190601f1680156102db5780820380516001836020036101000a031916815260200191505b50848103825285818151815260200191508051906020019080838360005b838110156103145780820151818401526020810190506102f9565b50505050905090810190601f1680156103415780820380516001836020036101000a031916815260200191505b50965050505050505060405180910390f35b600060078281548110151561036457fe5b9060005260206000209060030201600101549050919050565b6000600780549050905090565b600061039582610755565b15156103b557600560008381526020019081526020016000206001015490505b919050565b60006103c461096f565b6060604051908101604052808573ffffffffffffffffffffffffffffffffffffffff168152602001846000191681526020016000151581525090508060056000600354815260200190815260200160002060008201518160000160006101000a81548173ffffffffffffffffffffffffffffffffffffffff021916908373ffffffffffffffffffffffffffffffffffffffff1602179055506020820151816001019060001916905560408201518160020160006101000a81548160ff02191690831515021790555090505060036000815480929190600101919050555060016003540391505092915050565b6000600354905090565b6000600780548060010182816104d091906109ac565b916000526020600020906003020160006005600086815260200190815260200160002090919091506000820160009054906101000a900473ffffffffffffffffffffffffffffffffffffffff168160000160006101000a81548173ffffffffffffffffffffffffffffffffffffffff021916908373ffffffffffffffffffffffffffffffffffffffff160217905550600182015481600101906000191690556002820160009054906101000a900460ff168160020160006101000a81548160ff02191690831515021790555050505060036000815480929190600190039190505550600560006003548152602001908152602001600020600560008481526020019081526020016000206000820160009054906101000a900473ffffffffffffffffffffffffffffffffffffffff168160000160006101000a81548173ffffffffffffffffffffffffffffffffffffffff021916908373ffffffffffffffffffffffffffffffffffffffff160217905550600182015481600101906000191690556002820160009054906101000a900460ff168160020160006101000a81548160ff021916908315150217905550905050600560006003548152602001908152602001600020600080820160006101000a81549073ffffffffffffffffffffffffffffffffffffffff021916905560018201600090556002820160006101000a81549060ff021916905550507fa079831d93793395b7c2546c4d05d8569318729c72285bc86f5d8e6c56e7585460405160405180910390a160019050919050565b6107196109de565b6107216109de565b6107296109de565b610734600054610782565b9250610741600154610782565b915061074e600254610782565b9050909192565b60006005600083815260200190815260200160002060020160009054906101000a900460ff169050919050565b61078a6109de565b6107926109f2565b600080600061079f6109f2565b60206040518059106107ae5750595b9080825280601f01601f1916602001820160405250945060009350600092505b602083101561088c578260080260020a876001900402600102915060007f010000000000000000000000000000000000000000000000000000000000000002827effffffffffffffffffffffffffffffffffffffffffffffffffffffffffffff191614151561087f5781858581518110151561084657fe5b9060200101907effffffffffffffffffffffffffffffffffffffffffffffffffffffffffffff1916908160001a90535083806001019450505b82806001019350506107ce565b8360405180591061089a5750595b9080825280601f01601f19166020018201604052509050600092505b838310156109625784838151811015156108cc57fe5b9060200101517f010000000000000000000000000000000000000000000000000000000000000090047f010000000000000000000000000000000000000000000000000000000000000002818481518110151561092557fe5b9060200101907effffffffffffffffffffffffffffffffffffffffffffffffffffffffffffff1916908160001a90535082806001019350506108b6565b8095505050505050919050565b606060405190810160405280600073ffffffffffffffffffffffffffffffffffffffff168152602001600080191681526020016000151581525090565b8154818355818115116109d9576003028160030283600052602060002091820191016109d89190610a06565b5b505050565b602060405190810160405280600081525090565b602060405190810160405280600081525090565b610a6591905b80821115610a6157600080820160006101000a81549073ffffffffffffffffffffffffffffffffffffffff021916905560018201600090556002820160006101000a81549060ff021916905550600301610a0c565b5090565b905600a165627a7a72305820ee940ef0585e4851c9f3034be9de58e98f143a15cc48bfd7a04208ad26c85bb00029",
  "source": "pragma solidity ^0.4.8;\n\ncontract Patient {\n    bytes32 ssn;\n    bytes32 insuranceId;\n    bytes32 insuranceName;\n\n    event PrescriptionDelivered();\n    event PrescriptionCreated();\n\n    struct Prescription {\n        address doctorAddress;\n        bytes32 drugDetails;\n        bool delivered;\n\n    }\n\n    uint noOfPrescriptions;\n    uint noOfHistories;\n\n    mapping (uint => Prescription) prescriptions;\n    mapping (uint => address) prescriptions_index;\n    Prescription[] histories;\n\n    event PrescriptionRemoved(address prescription);\n\n    function Patient(bytes32 ssnParam, bytes32 insuranceIdParam, bytes32 insuranceNameParam) public {\n        ssn = ssnParam;\n        insuranceId = insuranceIdParam;\n        insuranceName = insuranceNameParam;\n        noOfPrescriptions = 0;\n        noOfHistories = 0;\n    }\n\n    function addPrescription(address doctorAddress, bytes32 drugDetails) public returns (uint) {\n        var prescription = Prescription(doctorAddress, drugDetails, false);\n        prescriptions[noOfPrescriptions] = prescription;\n        noOfPrescriptions++;\n        return noOfPrescriptions-1;\n        PrescriptionCreated();\n    }\n\n    function isPrescriptionDelivered(uint id) private returns (bool){\n        return prescriptions[id].delivered;\n    }\n\n    function getPrescriptionData(uint id) public returns (bytes32 drugs) {\n        if(!isPrescriptionDelivered(id)) {\n            drugs = prescriptions[id].drugDetails;\n        }\n    }\n\n    function getPrescriptionHistoryCount() public constant returns(uint) {\n        return histories.length;\n    }\n\n    function getPrescriptionHistory(uint id) public constant returns (bytes32 drugs) {\n        drugs = histories[id].drugDetails;\n    }\n\n    function prescriptionDelivered(uint id) public returns (bool) {\n        histories.push(prescriptions[id]);\n        noOfPrescriptions--;\n        prescriptions[id] = prescriptions[noOfPrescriptions];\n        delete prescriptions[noOfPrescriptions];\n        PrescriptionDelivered();\n        return true;\n    }\n\n    function getNoOfPrescriptions() public constant returns (uint) {\n        return noOfPrescriptions;\n    }\n\n    function getDetails() public constant returns (string ssnRet, string insuranceIdRet, string insuranceNameRet) {\n        ssnRet = bytes32ToString(ssn);\n        insuranceIdRet = bytes32ToString(insuranceId);\n        insuranceNameRet = bytes32ToString(insuranceName);\n    }\n\n    function bytes32ToString(bytes32 x) private returns (string) {\n        bytes memory bytesString = new bytes(32);\n        uint charCount = 0;\n        for (uint j = 0; j < 32; j++) {\n            byte char = byte(bytes32(uint(x) * 2 ** (8 * j)));\n            if (char != 0) {\n                bytesString[charCount] = char;\n                charCount++;\n            }\n        }\n        bytes memory bytesStringTrimmed = new bytes(charCount);\n        for (j = 0; j < charCount; j++) {\n            bytesStringTrimmed[j] = bytesString[j];\n        }\n        return string(bytesStringTrimmed);\n    }\n}",
  "sourcePath": "D:\\Projects\\LauzHack\\contracts\\Patient.sol",
  "compiler": {
    "name": "solc",
    "version": "0.4.18+commit.9cf6e910.Emscripten.clang"
  },
  "schemaVersion": "1.0.1",
  "updatedAt": "2017-11-12T05:40:44.756Z"
}