{
  "contractName": "Patient",
  "abi": [
    {
      "constant": false,
      "inputs": [
        {
          "name": "prescription",
          "type": "address"
        }
      ],
      "name": "validPrescription",
      "outputs": [
        {
          "name": "",
          "type": "bool"
        }
      ],
      "payable": false,
      "stateMutability": "nonpayable",
      "type": "function"
    },
    {
      "constant": false,
      "inputs": [
        {
          "name": "prescription",
          "type": "address"
        }
      ],
      "name": "addPrescription",
      "outputs": [],
      "payable": false,
      "stateMutability": "nonpayable",
      "type": "function"
    },
    {
      "constant": false,
      "inputs": [],
      "name": "getData",
      "outputs": [
        {
          "name": "",
          "type": "string"
        },
        {
          "name": "",
          "type": "string"
        },
        {
          "name": "",
          "type": "string"
        }
      ],
      "payable": false,
      "stateMutability": "nonpayable",
      "type": "function"
    },
    {
      "constant": false,
      "inputs": [
        {
          "name": "prescription",
          "type": "address"
        }
      ],
      "name": "existPrescription",
      "outputs": [
        {
          "name": "",
          "type": "bool"
        }
      ],
      "payable": false,
      "stateMutability": "nonpayable",
      "type": "function"
    },
    {
      "inputs": [
        {
          "name": "ssnParam",
          "type": "bytes32"
        },
        {
          "name": "insuranceIdParam",
          "type": "bytes32"
        },
        {
          "name": "insuranceNameParam",
          "type": "bytes32"
        }
      ],
      "payable": false,
      "stateMutability": "nonpayable",
      "type": "constructor"
    }
  ],
  "bytecode": "0x6060604052341561000f57600080fd5b604051606080610761833981016040528080519060200190919080519060200190919080519060200190919050508260008160001916905550816001816000191690555080600281600019169055505050506106f1806100706000396000f300606060405260043610610061576000357c0100000000000000000000000000000000000000000000000000000000900463ffffffff16806271a32f146100665780633abcc64c146100b75780633bc5de30146100f0578063838635d014610256575b600080fd5b341561007157600080fd5b61009d600480803573ffffffffffffffffffffffffffffffffffffffff169060200190919050506102a7565b604051808215151515815260200191505060405180910390f35b34156100c257600080fd5b6100ee600480803573ffffffffffffffffffffffffffffffffffffffff1690602001909190505061034f565b005b34156100fb57600080fd5b6101036103d0565b60405180806020018060200180602001848103845287818151815260200191508051906020019080838360005b8381101561014b578082015181840152602081019050610130565b50505050905090810190601f1680156101785780820380516001836020036101000a031916815260200191505b50848103835286818151815260200191508051906020019080838360005b838110156101b1578082015181840152602081019050610196565b50505050905090810190601f1680156101de5780820380516001836020036101000a031916815260200191505b50848103825285818151815260200191508051906020019080838360005b838110156102175780820151818401526020810190506101fc565b50505050905090810190601f1680156102445780820380516001836020036101000a031916815260200191505b50965050505050505060405180910390f35b341561026157600080fd5b61028d600480803573ffffffffffffffffffffffffffffffffffffffff16906020019091905050610414565b604051808215151515815260200191505060405180910390f35b60006102b282610414565b80156103485750600015158273ffffffffffffffffffffffffffffffffffffffff166322c9240d6000604051602001526040518163ffffffff167c0100000000000000000000000000000000000000000000000000000000028152600401602060405180830381600087803b151561032957600080fd5b6102c65a03f1151561033a57600080fd5b505050604051805190501515145b9050919050565b80600460008373ffffffffffffffffffffffffffffffffffffffff1673ffffffffffffffffffffffffffffffffffffffff16815260200190815260200160002060006101000a81548173ffffffffffffffffffffffffffffffffffffffff021916908373ffffffffffffffffffffffffffffffffffffffff16021790555050565b6103d861069d565b6103e061069d565b6103e861069d565b6103f36000546104b0565b6103fe6001546104b0565b6104096002546104b0565b925092509250909192565b600080600460008473ffffffffffffffffffffffffffffffffffffffff1673ffffffffffffffffffffffffffffffffffffffff16815260200190815260200160002060009054906101000a900473ffffffffffffffffffffffffffffffffffffffff1690508273ffffffffffffffffffffffffffffffffffffffff168173ffffffffffffffffffffffffffffffffffffffff1614915050919050565b6104b861069d565b6104c06106b1565b60008060006104cd6106b1565b60206040518059106104dc5750595b9080825280601f01601f1916602001820160405250945060009350600092505b60208310156105ba578260080260020a876001900402600102915060007f010000000000000000000000000000000000000000000000000000000000000002827effffffffffffffffffffffffffffffffffffffffffffffffffffffffffffff19161415156105ad5781858581518110151561057457fe5b9060200101907effffffffffffffffffffffffffffffffffffffffffffffffffffffffffffff1916908160001a90535083806001019450505b82806001019350506104fc565b836040518059106105c85750595b9080825280601f01601f19166020018201604052509050600092505b838310156106905784838151811015156105fa57fe5b9060200101517f010000000000000000000000000000000000000000000000000000000000000090047f010000000000000000000000000000000000000000000000000000000000000002818481518110151561065357fe5b9060200101907effffffffffffffffffffffffffffffffffffffffffffffffffffffffffffff1916908160001a90535082806001019350506105e4565b8095505050505050919050565b602060405190810160405280600081525090565b6020604051908101604052806000815250905600a165627a7a72305820ceaed1af921052aff757c63bb5c80e8857f6864e9654dad1ecde0e0a3c482c930029",
  "source": "import \"./Prescription.sol\";\n\npragma solidity ^0.4.8;\n\ncontract Patient {\n    bytes32 ssn;\n    bytes32 insuranceId;\n    bytes32 insuranceName;\n\n    mapping(address => Prescription) histories;\n    mapping(address => Prescription) prescriptions;\n\n    function Patient(bytes32 ssnParam, bytes32 insuranceIdParam, bytes32 insuranceNameParam) public {\n        ssn = ssnParam;\n        insuranceId = insuranceIdParam;\n        insuranceName = insuranceNameParam;\n    }\n\n    function addPrescription(Prescription prescription) public {\n        prescriptions[prescription] = prescription;\n    }\n\n    function validPrescription(Prescription prescription) public returns (bool) {\n        return existPrescription(prescription) && prescription.getDelivered() == false;\n    }\n\n    function existPrescription(Prescription prescription) public returns (bool) {\n        Prescription data = prescriptions[prescription];\n        return data == prescription;\n    }\n\n    function getData() public returns (string, string, string) {\n        return ( bytes32ToString(ssn), bytes32ToString(insuranceId), bytes32ToString(insuranceName));\n    }\n\n    function bytes32ToString(bytes32 x) private returns (string) {\n        bytes memory bytesString = new bytes(32);\n        uint charCount = 0;\n        for (uint j = 0; j < 32; j++) {\n            byte char = byte(bytes32(uint(x) * 2 ** (8 * j)));\n            if (char != 0) {\n                bytesString[charCount] = char;\n                charCount++;\n            }\n        }\n        bytes memory bytesStringTrimmed = new bytes(charCount);\n        for (j = 0; j < charCount; j++) {\n            bytesStringTrimmed[j] = bytesString[j];\n        }\n        return string(bytesStringTrimmed);\n    }\n}",
  "sourcePath": "/Users/ali/rwth/hackathon/dpm/contracts/Patient.sol",
  "compiler": {
    "name": "solc",
    "version": "0.4.18+commit.9cf6e910.Emscripten.clang"
  },
  "schemaVersion": "1.0.1",
  "updatedAt": "2017-11-11T18:52:53.466Z"
}