{
  "contractName": "Prescription",
  "abi": [
    {
      "constant": false,
      "inputs": [],
      "name": "getDelivered",
      "outputs": [
        {
          "name": "",
          "type": "bool"
        }
      ],
      "payable": false,
      "stateMutability": "nonpayable",
      "type": "function"
    },
    {
      "constant": false,
      "inputs": [],
      "name": "getData",
      "outputs": [
        {
          "name": "",
          "type": "string"
        }
      ],
      "payable": false,
      "stateMutability": "nonpayable",
      "type": "function"
    },
    {
      "constant": false,
      "inputs": [],
      "name": "deliver",
      "outputs": [],
      "payable": false,
      "stateMutability": "nonpayable",
      "type": "function"
    },
    {
      "inputs": [
        {
          "name": "doctorP",
          "type": "address"
        },
        {
          "name": "patientP",
          "type": "address"
        },
        {
          "name": "drugNameP",
          "type": "bytes32"
        },
        {
          "name": "deliveredP",
          "type": "bool"
        }
      ],
      "payable": false,
      "stateMutability": "nonpayable",
      "type": "constructor"
    }
  ],
  "bytecode": "0x6060604052341561000f57600080fd5b6040516080806105af83398101604052808051906020019091908051906020019091908051906020019091908051906020019091905050836000806101000a81548173ffffffffffffffffffffffffffffffffffffffff021916908373ffffffffffffffffffffffffffffffffffffffff16021790555082600160006101000a81548173ffffffffffffffffffffffffffffffffffffffff021916908373ffffffffffffffffffffffffffffffffffffffff160217905550816002816000191690555080600360006101000a81548160ff021916908315150217905550600160009054906101000a900473ffffffffffffffffffffffffffffffffffffffff1673ffffffffffffffffffffffffffffffffffffffff16633abcc64c306040518263ffffffff167c0100000000000000000000000000000000000000000000000000000000028152600401808273ffffffffffffffffffffffffffffffffffffffff1673ffffffffffffffffffffffffffffffffffffffff168152602001915050600060405180830381600087803b15156101a857600080fd5b6102c65a03f115156101b957600080fd5b505050505050506103e0806101cf6000396000f300606060405260043610610057576000357c0100000000000000000000000000000000000000000000000000000000900463ffffffff16806322c9240d1461005c5780633bc5de3014610089578063fd3e50a714610117575b600080fd5b341561006757600080fd5b61006f61012c565b604051808215151515815260200191505060405180910390f35b341561009457600080fd5b61009c610143565b6040518080602001828103825283818151815260200191508051906020019080838360005b838110156100dc5780820151818401526020810190506100c1565b50505050905090810190601f1680156101095780820380516001836020036101000a031916815260200191505b509250505060405180910390f35b341561012257600080fd5b61012a610182565b005b6000600360009054906101000a900460ff16905090565b61014b61038c565b60008060009054906101000a900473ffffffffffffffffffffffffffffffffffffffff16905061017c60025461019f565b91505090565b6001600360006101000a81548160ff021916908315150217905550565b6101a761038c565b6101af6103a0565b60008060006101bc6103a0565b60206040518059106101cb5750595b9080825280601f01601f1916602001820160405250945060009350600092505b60208310156102a9578260080260020a876001900402600102915060007f010000000000000000000000000000000000000000000000000000000000000002827effffffffffffffffffffffffffffffffffffffffffffffffffffffffffffff191614151561029c5781858581518110151561026357fe5b9060200101907effffffffffffffffffffffffffffffffffffffffffffffffffffffffffffff1916908160001a90535083806001019450505b82806001019350506101eb565b836040518059106102b75750595b9080825280601f01601f19166020018201604052509050600092505b8383101561037f5784838151811015156102e957fe5b9060200101517f010000000000000000000000000000000000000000000000000000000000000090047f010000000000000000000000000000000000000000000000000000000000000002818481518110151561034257fe5b9060200101907effffffffffffffffffffffffffffffffffffffffffffffffffffffffffffff1916908160001a90535082806001019350506102d3565b8095505050505050919050565b602060405190810160405280600081525090565b6020604051908101604052806000815250905600a165627a7a723058206f9d73ea25ffdd0ccbb5e53e6cd4480ae4d083eb1ee00d4297105f76421d65fb0029",
  "source": "import \"./Patient.sol\";\nimport \"./Doctor.sol\";\n\npragma solidity ^0.4.8;\n\ncontract Prescription {\n    address doctor;\n    address patient;\n    bytes32 drugName;\n    bool delivered;\n\n    function Prescription(address doctorP, address patientP, bytes32 drugNameP, bool deliveredP) public {\n        doctor = doctorP;\n        patient = patientP;\n        drugName = drugNameP;\n        delivered = deliveredP;\n        Patient(patient).addPrescription(this);\n    }\n\n    function getDelivered() public returns(bool) {\n        return delivered;\n    }\n\n    function deliver() public {\n        delivered = true;\n    }\n\n    function getData() public returns (string) {\n        Doctor d = Doctor(doctor);\n        return bytes32ToString(drugName);\n    }\n\n    function bytes32ToString(bytes32 x) private returns (string) {\n        bytes memory bytesString = new bytes(32);\n        uint charCount = 0;\n        for (uint j = 0; j < 32; j++) {\n            byte char = byte(bytes32(uint(x) * 2 ** (8 * j)));\n            if (char != 0) {\n                bytesString[charCount] = char;\n                charCount++;\n            }\n        }\n        bytes memory bytesStringTrimmed = new bytes(charCount);\n        for (j = 0; j < charCount; j++) {\n            bytesStringTrimmed[j] = bytesString[j];\n        }\n        return string(bytesStringTrimmed);\n    }\n}\n",
  "sourcePath": "/Users/ali/rwth/hackathon/dpm/contracts/Prescription.sol",
  "compiler": {
    "name": "solc",
    "version": "0.4.18+commit.9cf6e910.Emscripten.clang"
  },
  "schemaVersion": "1.0.1",
  "updatedAt": "2017-11-11T18:52:53.467Z"
}