{
  "contractName": "Prescription",
  "abi": [
    {
      "constant": true,
      "inputs": [],
      "name": "getDelivered",
      "outputs": [
        {
          "name": "",
          "type": "bool"
        }
      ],
      "payable": false,
      "stateMutability": "view",
      "type": "function"
    },
    {
      "constant": true,
      "inputs": [],
      "name": "getDoctor",
      "outputs": [
        {
          "name": "",
          "type": "address"
        }
      ],
      "payable": false,
      "stateMutability": "view",
      "type": "function"
    },
    {
      "constant": false,
      "inputs": [],
      "name": "getId",
      "outputs": [
        {
          "name": "",
          "type": "uint256"
        }
      ],
      "payable": false,
      "stateMutability": "view",
      "type": "function"
    },
    {
      "constant": true,
      "inputs": [],
      "name": "getPatient",
      "outputs": [
        {
          "name": "",
          "type": "address"
        }
      ],
      "payable": false,
      "stateMutability": "view",
      "type": "function"
    },
    {
      "constant": true,
      "inputs": [],
      "name": "getDrugName",
      "outputs": [
        {
          "name": "",
          "type": "bytes32"
        }
      ],
      "payable": false,
      "stateMutability": "view",
      "type": "function"
    },
    {
      "constant": false,
      "inputs": [
        {
          "name": "newId",
          "type": "uint256"
        }
      ],
      "name": "setId",
      "outputs": [],
      "payable": false,
      "stateMutability": "nonpayable",
      "type": "function"
    },
    {
      "constant": false,
      "inputs": [],
      "name": "deliver",
      "outputs": [],
      "payable": false,
      "stateMutability": "nonpayable",
      "type": "function"
    },
    {
      "inputs": [
        {
          "name": "doctorP",
          "type": "address"
        },
        {
          "name": "patientP",
          "type": "address"
        },
        {
          "name": "drugNameP",
          "type": "bytes32"
        },
        {
          "name": "deliveredP",
          "type": "bool"
        }
      ],
      "payable": false,
      "stateMutability": "nonpayable",
      "type": "constructor"
    }
  ],
  "bytecode": "0x6060604052341561000f57600080fd5b6040516080806105d983398101604052808051906020019091908051906020019091908051906020019091908051906020019091905050600083905084600160006101000a81548173ffffffffffffffffffffffffffffffffffffffff021916908373ffffffffffffffffffffffffffffffffffffffff16021790555083600260006101000a81548173ffffffffffffffffffffffffffffffffffffffff021916908373ffffffffffffffffffffffffffffffffffffffff160217905550826003816000191690555081600460006101000a81548160ff0219169083151502179055508073ffffffffffffffffffffffffffffffffffffffff1663d56e19f16000604051602001526040518163ffffffff167c0100000000000000000000000000000000000000000000000000000000028152600401602060405180830381600087803b151561015e57600080fd5b6102c65a03f1151561016f57600080fd5b505050604051805190506000819055508073ffffffffffffffffffffffffffffffffffffffff16633abcc64c306040518263ffffffff167c0100000000000000000000000000000000000000000000000000000000028152600401808273ffffffffffffffffffffffffffffffffffffffff1673ffffffffffffffffffffffffffffffffffffffff168152602001915050600060405180830381600087803b151561021957600080fd5b6102c65a03f1151561022a57600080fd5b5050505050505050610398806102416000396000f300606060405260043610610083576000357c0100000000000000000000000000000000000000000000000000000000900463ffffffff16806322c9240d146100885780633aaa5920146100b55780635d1ca6311461010a5780637b0f9a36146101335780639d2c3eb514610188578063d0e0ba95146101b9578063fd3e50a7146101dc575b600080fd5b341561009357600080fd5b61009b6101f1565b604051808215151515815260200191505060405180910390f35b34156100c057600080fd5b6100c8610208565b604051808273ffffffffffffffffffffffffffffffffffffffff1673ffffffffffffffffffffffffffffffffffffffff16815260200191505060405180910390f35b341561011557600080fd5b61011d610232565b6040518082815260200191505060405180910390f35b341561013e57600080fd5b61014661023b565b604051808273ffffffffffffffffffffffffffffffffffffffff1673ffffffffffffffffffffffffffffffffffffffff16815260200191505060405180910390f35b341561019357600080fd5b61019b610265565b60405180826000191660001916815260200191505060405180910390f35b34156101c457600080fd5b6101da600480803590602001909190505061026f565b005b34156101e757600080fd5b6101ef610279565b005b6000600460009054906101000a900460ff16905090565b6000600160009054906101000a900473ffffffffffffffffffffffffffffffffffffffff16905090565b60008054905090565b6000600260009054906101000a900473ffffffffffffffffffffffffffffffffffffffff16905090565b6000600354905090565b8060008190555050565b60006001600460006101000a81548160ff021916908315150217905550600260009054906101000a900473ffffffffffffffffffffffffffffffffffffffff1690508073ffffffffffffffffffffffffffffffffffffffff166391aa588d306040518263ffffffff167c0100000000000000000000000000000000000000000000000000000000028152600401808273ffffffffffffffffffffffffffffffffffffffff1673ffffffffffffffffffffffffffffffffffffffff168152602001915050600060405180830381600087803b151561035557600080fd5b6102c65a03f1151561036657600080fd5b505050505600a165627a7a7230582087a7819f9bfee66e0da5348e4129867c8742f1374d483c3edce2252687a5198a0029",
  "source": "import \"./Patient.sol\";\n\npragma solidity ^0.4.8;\n\ncontract Prescription {\n    uint id;\n    address doctor;\n    address patient;\n    bytes32 drugName;\n    bool delivered;\n    \n    function Prescription(address doctorP, address patientP, bytes32 drugNameP, bool deliveredP) public {\n        Patient p = Patient(patientP);\n        doctor = doctorP;\n        patient = patientP;\n        drugName = drugNameP;\n        delivered = deliveredP;\n        id = p.getNoOfPrescriptions();\n        p.addPrescription(this);\n    }\n    \n    function getId() public constant returns(uint) {\n        return id;\n    }\n    \n    function setId(uint newId) public {\n        id = newId;\n    }\n    \n    function getDoctor() public constant returns(address) {\n        return doctor;\n    }\n    \n    function getPatient() public constant returns(address) {\n        return patient;\n    }\n    \n    function getDrugName() public constant returns(bytes32) {\n        return drugName;\n    }\n    \n    function getDelivered() public constant returns(bool) {\n        return delivered;\n    }\n    \n    function deliver() public {\n        delivered = true;\n        Patient p = Patient(patient);\n        p.removePrescription(this);\n    }\n}\n",
  "sourcePath": "/Users/ali/rwth/hackathon/dpm/contracts/Prescription.sol",
  "compiler": {
    "name": "solc",
    "version": "0.4.18+commit.9cf6e910.Emscripten.clang"
  },
  "schemaVersion": "1.0.1",
  "updatedAt": "2017-11-11T23:49:20.338Z"
}