{
  "contractName": "Prescription",
  "abi": [
    {
      "constant": false,
      "inputs": [],
      "name": "getDelivered",
      "outputs": [
        {
          "name": "",
          "type": "bool"
        }
      ],
      "payable": false,
      "stateMutability": "nonpayable",
      "type": "function"
    },
    {
      "constant": false,
      "inputs": [],
      "name": "getDoctor",
      "outputs": [
        {
          "name": "",
          "type": "address"
        }
      ],
      "payable": false,
      "stateMutability": "nonpayable",
      "type": "function"
    },
    {
      "constant": false,
      "inputs": [],
      "name": "getData",
      "outputs": [
        {
          "name": "",
          "type": "string"
        }
      ],
      "payable": false,
      "stateMutability": "nonpayable",
      "type": "function"
    },
    {
      "constant": false,
      "inputs": [],
      "name": "getId",
      "outputs": [
        {
          "name": "",
          "type": "uint256"
        }
      ],
      "payable": false,
      "stateMutability": "nonpayable",
      "type": "function"
    },
    {
      "constant": false,
      "inputs": [],
      "name": "getPatient",
      "outputs": [
        {
          "name": "",
          "type": "address"
        }
      ],
      "payable": false,
      "stateMutability": "nonpayable",
      "type": "function"
    },
    {
      "constant": false,
      "inputs": [],
      "name": "getDrugName",
      "outputs": [
        {
          "name": "",
          "type": "bytes32"
        }
      ],
      "payable": false,
      "stateMutability": "nonpayable",
      "type": "function"
    },
    {
      "constant": false,
      "inputs": [
        {
          "name": "newId",
          "type": "uint256"
        }
      ],
      "name": "setId",
      "outputs": [],
      "payable": false,
      "stateMutability": "nonpayable",
      "type": "function"
    },
    {
      "constant": false,
      "inputs": [],
      "name": "deliver",
      "outputs": [],
      "payable": false,
      "stateMutability": "nonpayable",
      "type": "function"
    },
    {
      "inputs": [
        {
          "name": "doctorP",
          "type": "address"
        },
        {
          "name": "patientP",
          "type": "address"
        },
        {
          "name": "drugNameP",
          "type": "bytes32"
        },
        {
          "name": "deliveredP",
          "type": "bool"
        }
      ],
      "payable": false,
      "stateMutability": "nonpayable",
      "type": "constructor"
    }
  ],
  "bytecode": "0x6060604052341561000f57600080fd5b6040516080806107588339810160405280805190602001909190805190602001909190805190602001909190805190602001909190505083600160006101000a81548173ffffffffffffffffffffffffffffffffffffffff021916908373ffffffffffffffffffffffffffffffffffffffff16021790555082600260006101000a81548173ffffffffffffffffffffffffffffffffffffffff021916908373ffffffffffffffffffffffffffffffffffffffff160217905550816003816000191690555080600460006101000a81548160ff02191690831515021790555050505050610658806101006000396000f30060606040526004361061008e576000357c0100000000000000000000000000000000000000000000000000000000900463ffffffff16806322c9240d146100935780633aaa5920146100c05780633bc5de30146101155780635d1ca631146101a35780637b0f9a36146101cc5780639d2c3eb514610221578063d0e0ba9514610252578063fd3e50a714610275575b600080fd5b341561009e57600080fd5b6100a661028a565b604051808215151515815260200191505060405180910390f35b34156100cb57600080fd5b6100d36102a1565b604051808273ffffffffffffffffffffffffffffffffffffffff1673ffffffffffffffffffffffffffffffffffffffff16815260200191505060405180910390f35b341561012057600080fd5b6101286102cb565b6040518080602001828103825283818151815260200191508051906020019080838360005b8381101561016857808201518184015260208101905061014d565b50505050905090810190601f1680156101955780820380516001836020036101000a031916815260200191505b509250505060405180910390f35b34156101ae57600080fd5b6101b66102e3565b6040518082815260200191505060405180910390f35b34156101d757600080fd5b6101df6102ec565b604051808273ffffffffffffffffffffffffffffffffffffffff1673ffffffffffffffffffffffffffffffffffffffff16815260200191505060405180910390f35b341561022c57600080fd5b610234610316565b60405180826000191660001916815260200191505060405180910390f35b341561025d57600080fd5b6102736004808035906020019091905050610320565b005b341561028057600080fd5b61028861032a565b005b6000600460009054906101000a900460ff16905090565b6000600160009054906101000a900473ffffffffffffffffffffffffffffffffffffffff16905090565b6102d3610604565b6102de600354610417565b905090565b60008054905090565b6000600260009054906101000a900473ffffffffffffffffffffffffffffffffffffffff16905090565b6000600354905090565b8060008190555050565b6001600460006101000a81548160ff021916908315150217905550600260009054906101000a900473ffffffffffffffffffffffffffffffffffffffff1673ffffffffffffffffffffffffffffffffffffffff166391aa588d306040518263ffffffff167c0100000000000000000000000000000000000000000000000000000000028152600401808273ffffffffffffffffffffffffffffffffffffffff1673ffffffffffffffffffffffffffffffffffffffff168152602001915050600060405180830381600087803b151561040157600080fd5b6102c65a03f1151561041257600080fd5b505050565b61041f610604565b610427610618565b6000806000610434610618565b60206040518059106104435750595b9080825280601f01601f1916602001820160405250945060009350600092505b6020831015610521578260080260020a876001900402600102915060007f010000000000000000000000000000000000000000000000000000000000000002827effffffffffffffffffffffffffffffffffffffffffffffffffffffffffffff1916141515610514578185858151811015156104db57fe5b9060200101907effffffffffffffffffffffffffffffffffffffffffffffffffffffffffffff1916908160001a90535083806001019450505b8280600101935050610463565b8360405180591061052f5750595b9080825280601f01601f19166020018201604052509050600092505b838310156105f757848381518110151561056157fe5b9060200101517f010000000000000000000000000000000000000000000000000000000000000090047f01000000000000000000000000000000000000000000000000000000000000000281848151811015156105ba57fe5b9060200101907effffffffffffffffffffffffffffffffffffffffffffffffffffffffffffff1916908160001a905350828060010193505061054b565b8095505050505050919050565b602060405190810160405280600081525090565b6020604051908101604052806000815250905600a165627a7a7230582096e73c59fd9b224e7a73290b35d7a59bfe586a6c6ff2dd68865ad25d775b77860029",
  "source": "import \"./Patient.sol\";\n\npragma solidity ^0.4.8;\n\ncontract Prescription {\n    uint id;\n    address doctor;\n    address patient;\n    bytes32 drugName;\n    bool delivered;\n\n    function Prescription(address doctorP, address patientP, bytes32 drugNameP, bool deliveredP) public {\n        doctor = doctorP;\n        patient = patientP;\n        drugName = drugNameP;\n        delivered = deliveredP;\n    }\n\n    function getId() public returns(uint) {\n        return id;\n    }\n\n    function setId(uint newId) public {\n        id = newId;\n    }\n\n    function getDoctor() public returns(address) {\n        return doctor;\n    }\n\n    function getPatient() public returns(address) {\n        return patient;\n    }\n\n    function getDrugName() public returns(bytes32) {\n        return drugName;\n    }\n\n    function getDelivered() public returns(bool) {\n        return delivered;\n    }\n\n    function deliver() public {\n        delivered = true;\n        Patient(patient).removePrescription(this);\n    }\n\n    function getData() public returns (string) {\n        return bytes32ToString(drugName);\n    }\n\n    function bytes32ToString(bytes32 x) private returns (string) {\n        bytes memory bytesString = new bytes(32);\n        uint charCount = 0;\n        for (uint j = 0; j < 32; j++) {\n            byte char = byte(bytes32(uint(x) * 2 ** (8 * j)));\n            if (char != 0) {\n                bytesString[charCount] = char;\n                charCount++;\n            }\n        }\n        bytes memory bytesStringTrimmed = new bytes(charCount);\n        for (j = 0; j < charCount; j++) {\n            bytesStringTrimmed[j] = bytesString[j];\n        }\n        return string(bytesStringTrimmed);\n    }\n}\n",
  "sourcePath": "D:\\Projects\\LauzHack\\contracts\\Prescription.sol",
  "compiler": {
    "name": "solc",
    "version": "0.4.18+commit.9cf6e910.Emscripten.clang"
  },
  "schemaVersion": "1.0.1",
  "updatedAt": "2017-11-12T02:14:23.096Z"
}