{
  "contractName": "Prescription",
  "abi": [
    {
      "constant": true,
      "inputs": [],
      "name": "getDelivered",
      "outputs": [
        {
          "name": "",
          "type": "bool"
        }
      ],
      "payable": false,
      "stateMutability": "view",
      "type": "function"
    },
    {
      "constant": true,
      "inputs": [],
      "name": "getDoctor",
      "outputs": [
        {
          "name": "",
          "type": "address"
        }
      ],
      "payable": false,
      "stateMutability": "view",
      "type": "function"
    },
    {
      "constant": true,
      "inputs": [],
      "name": "getData",
      "outputs": [
        {
          "name": "",
          "type": "string"
        }
      ],
      "payable": false,
      "stateMutability": "view",
      "type": "function"
    },
    {
      "inputs": [
        {
          "name": "doctorP",
          "type": "address"
        },
        {
          "name": "patientP",
          "type": "address"
        },
        {
          "name": "drugNameP",
          "type": "bytes32"
        },
        {
          "name": "deliveredP",
          "type": "bool"
        }
      ],
      "payable": false,
      "stateMutability": "view",
      "type": "function",
      "constant": true,
      "name": "getId",
      "outputs": [
        {
          "name": "",
          "type": "uint256"
        }
      ]
    },
    {
      "constant": true,
      "inputs": [],
      "name": "getPatient",
      "outputs": [
        {
          "name": "",
          "type": "address"
        }
      ],
      "payable": false,
      "stateMutability": "view",
      "type": "function"
    },
    {
      "constant": true,
      "inputs": [],
      "name": "getDrugName",
      "outputs": [
        {
          "name": "",
          "type": "bytes32"
        }
      ],
      "payable": false,
      "stateMutability": "view",
      "type": "function"
    },
    {
      "constant": false,
      "inputs": [
        {
          "name": "newId",
          "type": "uint256"
        }
      ],
      "name": "setId",
      "outputs": [],
      "payable": false,
      "stateMutability": "nonpayable",
      "type": "function"
    },
    {
      "constant": false,
      "inputs": [],
      "name": "deliver",
      "outputs": [],
      "payable": false,
      "stateMutability": "nonpayable",
      "type": "function"
    },
    {
      "inputs": [
        {
          "name": "doctorP",
          "type": "address"
        },
        {
          "name": "patientP",
          "type": "address"
        },
        {
          "name": "drugNameP",
          "type": "bytes32"
        },
        {
          "name": "deliveredP",
          "type": "bool"
        }
      ],
      "payable": false,
      "stateMutability": "nonpayable",
      "type": "constructor"
    }
  ],
  "bytecode": "0x6060604052341561000f57600080fd5b6040516080806108c783398101604052808051906020019091908051906020019091908051906020019091908051906020019091905050600083905084600160006101000a81548173ffffffffffffffffffffffffffffffffffffffff021916908373ffffffffffffffffffffffffffffffffffffffff16021790555083600260006101000a81548173ffffffffffffffffffffffffffffffffffffffff021916908373ffffffffffffffffffffffffffffffffffffffff160217905550826003816000191690555081600460006101000a81548160ff0219169083151502179055508073ffffffffffffffffffffffffffffffffffffffff1663d56e19f16000604051602001526040518163ffffffff167c0100000000000000000000000000000000000000000000000000000000028152600401602060405180830381600087803b151561015e57600080fd5b6102c65a03f1151561016f57600080fd5b505050604051805190506000819055508073ffffffffffffffffffffffffffffffffffffffff16633abcc64c306040518263ffffffff167c0100000000000000000000000000000000000000000000000000000000028152600401808273ffffffffffffffffffffffffffffffffffffffff1673ffffffffffffffffffffffffffffffffffffffff168152602001915050600060405180830381600087803b151561021957600080fd5b6102c65a03f1151561022a57600080fd5b5050505050505050610686806102416000396000f30060606040526004361061008e576000357c0100000000000000000000000000000000000000000000000000000000900463ffffffff16806322c9240d146100935780633aaa5920146100c05780633bc5de30146101155780635d1ca631146101a35780637b0f9a36146101cc5780639d2c3eb514610221578063d0e0ba9514610252578063fd3e50a714610275575b600080fd5b341561009e57600080fd5b6100a661028a565b604051808215151515815260200191505060405180910390f35b34156100cb57600080fd5b6100d36102a1565b604051808273ffffffffffffffffffffffffffffffffffffffff1673ffffffffffffffffffffffffffffffffffffffff16815260200191505060405180910390f35b341561012057600080fd5b6101286102cb565b6040518080602001828103825283818151815260200191508051906020019080838360005b8381101561016857808201518184015260208101905061014d565b50505050905090810190601f1680156101955780820380516001836020036101000a031916815260200191505b509250505060405180910390f35b34156101ae57600080fd5b6101b661030b565b6040518082815260200191505060405180910390f35b34156101d757600080fd5b6101df610314565b604051808273ffffffffffffffffffffffffffffffffffffffff1673ffffffffffffffffffffffffffffffffffffffff16815260200191505060405180910390f35b341561022c57600080fd5b61023461033e565b60405180826000191660001916815260200191505060405180910390f35b341561025d57600080fd5b6102736004808035906020019091905050610348565b005b341561028057600080fd5b610288610352565b005b6000600460009054906101000a900460ff16905090565b6000600160009054906101000a900473ffffffffffffffffffffffffffffffffffffffff16905090565b6102d3610632565b6000600160009054906101000a900473ffffffffffffffffffffffffffffffffffffffff169050610305600354610445565b91505090565b60008054905090565b6000600260009054906101000a900473ffffffffffffffffffffffffffffffffffffffff16905090565b6000600354905090565b8060008190555050565b60006001600460006101000a81548160ff021916908315150217905550600260009054906101000a900473ffffffffffffffffffffffffffffffffffffffff1690508073ffffffffffffffffffffffffffffffffffffffff166391aa588d306040518263ffffffff167c0100000000000000000000000000000000000000000000000000000000028152600401808273ffffffffffffffffffffffffffffffffffffffff1673ffffffffffffffffffffffffffffffffffffffff168152602001915050600060405180830381600087803b151561042e57600080fd5b6102c65a03f1151561043f57600080fd5b50505050565b61044d610632565b610455610646565b6000806000610462610646565b60206040518059106104715750595b9080825280601f01601f1916602001820160405250945060009350600092505b602083101561054f578260080260020a876001900402600102915060007f010000000000000000000000000000000000000000000000000000000000000002827effffffffffffffffffffffffffffffffffffffffffffffffffffffffffffff19161415156105425781858581518110151561050957fe5b9060200101907effffffffffffffffffffffffffffffffffffffffffffffffffffffffffffff1916908160001a90535083806001019450505b8280600101935050610491565b8360405180591061055d5750595b9080825280601f01601f19166020018201604052509050600092505b8383101561062557848381518110151561058f57fe5b9060200101517f010000000000000000000000000000000000000000000000000000000000000090047f01000000000000000000000000000000000000000000000000000000000000000281848151811015156105e857fe5b9060200101907effffffffffffffffffffffffffffffffffffffffffffffffffffffffffffff1916908160001a9053508280600101935050610579565b8095505050505050919050565b602060405190810160405280600081525090565b6020604051908101604052806000815250905600a165627a7a723058208f3ce074146a9779bf83bfd88d8438afa8742e39aee9d8258ac0529b4fc7588f0029",
  "source": "import \"./Patient.sol\";\r\nimport \"./Doctor.sol\";\r\n\r\npragma solidity ^0.4.8;\r\n\r\ncontract Prescription {\r\n    uint id;\r\n    address doctor;\r\n    address patient;\r\n    bytes32 drugName;\r\n    bool delivered;\r\n\r\n    function Prescription(address doctorP, address patientP, bytes32 drugNameP, bool deliveredP) public {\r\n        Patient p = Patient(patientP);\r\n        doctor = doctorP;\r\n        patient = patientP;\r\n        drugName = drugNameP;\r\n        delivered = deliveredP;\r\n        id = p.getNoOfPrescriptions();\r\n        p.addPrescription(this);\r\n    }\r\n\r\n    function getId() public constant returns(uint) {\r\n        return id;\r\n    }\r\n\r\n    function setId(uint newId) public {\r\n        id = newId;\r\n    }\r\n\r\n    function getDoctor() public constant returns(address) {\r\n        return doctor;\r\n    }\r\n\r\n    function getPatient() public constant returns(address) {\r\n        return patient;\r\n    }\r\n\r\n    function getDrugName() public constant returns(bytes32) {\r\n        return drugName;\r\n    }\r\n\r\n    function getDelivered() public constant returns(bool) {\r\n        return delivered;\r\n    }\r\n\r\n    function deliver() public {\r\n        delivered = true;\r\n        Patient p = Patient(patient);\r\n        p.removePrescription(this);\r\n    }\r\n\r\n    function getData() public constant returns (string) {\r\n        Doctor d = Doctor(doctor);\r\n        return bytes32ToString(drugName);\r\n    }\r\n\r\n    function bytes32ToString(bytes32 x) private returns (string) {\r\n        bytes memory bytesString = new bytes(32);\r\n        uint charCount = 0;\r\n        for (uint j = 0; j < 32; j++) {\r\n            byte char = byte(bytes32(uint(x) * 2 ** (8 * j)));\r\n            if (char != 0) {\r\n                bytesString[charCount] = char;\r\n                charCount++;\r\n            }\r\n        }\r\n        bytes memory bytesStringTrimmed = new bytes(charCount);\r\n        for (j = 0; j < charCount; j++) {\r\n            bytesStringTrimmed[j] = bytesString[j];\r\n        }\r\n        return string(bytesStringTrimmed);\r\n    }\r\n}\r\n",
  "sourcePath": "D:\\Projects\\LauzHack\\contracts\\Prescription.sol",
  "compiler": {
    "name": "solc",
    "version": "0.4.18+commit.9cf6e910.Emscripten.clang"
  },
  "schemaVersion": "1.0.1",
  "updatedAt": "2017-11-11T23:09:25.925Z"
}